{
  "_format": "hh-sol-artifact-1",
  "contractName": "DeliveryTracker",
  "sourceName": "contracts/DeliveryTracker.sol",
  "abi": [
    {
      "inputs": [
        {
          "internalType": "address",
          "name": "_deliveryStorageAddress",
          "type": "address"
        }
      ],
      "stateMutability": "nonpayable",
      "type": "constructor"
    },
    {
      "inputs": [],
      "name": "deliveryStorage",
      "outputs": [
        {
          "internalType": "contract DeliveryStorage",
          "name": "",
          "type": "address"
        }
      ],
      "stateMutability": "view",
      "type": "function"
    },
    {
      "inputs": [
        {
          "internalType": "uint256",
          "name": "_trackingId",
          "type": "uint256"
        }
      ],
      "name": "trackDelivery",
      "outputs": [
        {
          "internalType": "string",
          "name": "nametag",
          "type": "string"
        },
        {
          "internalType": "string",
          "name": "pickupStation",
          "type": "string"
        },
        {
          "internalType": "uint256",
          "name": "amount",
          "type": "uint256"
        },
        {
          "internalType": "string",
          "name": "recipientName",
          "type": "string"
        },
        {
          "internalType": "string",
          "name": "senderName",
          "type": "string"
        },
        {
          "internalType": "string",
          "name": "recipientPhone",
          "type": "string"
        },
        {
          "internalType": "string",
          "name": "senderPhone",
          "type": "string"
        },
        {
          "internalType": "bool",
          "name": "isVerified",
          "type": "bool"
        },
        {
          "internalType": "bool",
          "name": "isPaid",
          "type": "bool"
        }
      ],
      "stateMutability": "view",
      "type": "function"
    }
  ],
  "bytecode": "0x60803461007457601f61046638819003918201601f19168301916001600160401b038311848410176100795780849260209460405283398101031261007457516001600160a01b0381169081900361007457600080546001600160a01b0319169190911790556040516103d690816100908239f35b600080fd5b634e487b7160e01b600052604160045260246000fdfe60806040818152600436101561001457600080fd5b600091823560e01c9081633b70ab2c14610295575063d735fe6a1461003857600080fd5b346102695760209081600319360112610285578254815163de8211a960e01b815260048035908201529293908190849060249082906001600160a01b03165afa92831561028957819361013a575b5050815191838101519082810151926060820151608083015160a08401519160c08501519360e08601511515976101008097015115159782519b8c9b8c6101208091528d016100d4916102dc565b908c8203908d01526100e5916102dc565b918a015288810360608a01526100fa916102dc565b878103608089015261010b916102dc565b86810360a088015261011c916102dc565b85810360c087015261012d916102dc565b9260e08501528301520390f35b909192503d8083833e61014d8183610301565b8101848282031261028557815167ffffffffffffffff928382116102815701916101209384848403126102665785519485018581108382111761026d578652835182811161026957836101a1918601610339565b85528684015182811161026957836101ba918601610339565b878601528584015186860152606084015182811161026957836101de918601610339565b6060860152608084015182811161026957836101fb918601610339565b608086015260a08401518281116102695783610218918601610339565b60a086015260c0840151918211610266575090610236918301610339565b60c083015261024760e08201610393565b60e083015261025a610100809201610393565b90820152903880610086565b80fd5b5080fd5b634e487b7160e01b82526041600452602482fd5b8480fd5b8280fd5b509051903d90823e3d90fd5b83903461026957816003193601126102695790546001600160a01b03168152602090f35b60005b8381106102cc5750506000910152565b81810151838201526020016102bc565b906020916102f5815180928185528580860191016102b9565b601f01601f1916010190565b90601f8019910116810190811067ffffffffffffffff82111761032357604052565b634e487b7160e01b600052604160045260246000fd5b81601f8201121561038e57805167ffffffffffffffff8111610323576040519261036d601f8301601f191660200185610301565b8184526020828401011161038e5761038b91602080850191016102b9565b90565b600080fd5b5190811515820361038e5756fea2646970667358221220c30754bdd6e5a290fea8294d6096b61e980befdb31aec259dcae4122fe7b8d7564736f6c63430008140033",
  "linkReferences": {},
  "deployedLinkReferences": {}
}