{"contracts/DeliveryTracker.sol":{"DeliveryTracker":{"abi":[{"inputs":[{"internalType":"address","name":"_deliveryStorageAddress","type":"address"}],"stateMutability":"nonpayable","type":"constructor"},{"inputs":[],"name":"deliveryStorage","outputs":[{"internalType":"contract DeliveryStorage","name":"","type":"address"}],"stateMutability":"view","type":"function"},{"inputs":[{"internalType":"uint256","name":"_trackingId","type":"uint256"}],"name":"trackDelivery","outputs":[{"internalType":"string","name":"nametag","type":"string"},{"internalType":"string","name":"pickupStation","type":"string"},{"internalType":"uint256","name":"amount","type":"uint256"},{"internalType":"string","name":"recipientName","type":"string"},{"internalType":"string","name":"senderName","type":"string"},{"internalType":"string","name":"recipientPhone","type":"string"},{"internalType":"string","name":"senderPhone","type":"string"},{"internalType":"bool","name":"isVerified","type":"bool"},{"internalType":"bool","name":"isPaid","type":"bool"}],"stateMutability":"view","type":"function"}],"evm":{"bytecode":{"linkReferences":{},"object":"60803461007457601f61046638819003918201601f19168301916001600160401b038311848410176100795780849260209460405283398101031261007457516001600160a01b0381169081900361007457600080546001600160a01b0319169190911790556040516103d690816100908239f35b600080fd5b634e487b7160e01b600052604160045260246000fdfe60806040818152600436101561001457600080fd5b600091823560e01c9081633b70ab2c14610295575063d735fe6a1461003857600080fd5b346102695760209081600319360112610285578254815163de8211a960e01b815260048035908201529293908190849060249082906001600160a01b03165afa92831561028957819361013a575b5050815191838101519082810151926060820151608083015160a08401519160c08501519360e08601511515976101008097015115159782519b8c9b8c6101208091528d016100d4916102dc565b908c8203908d01526100e5916102dc565b918a015288810360608a01526100fa916102dc565b878103608089015261010b916102dc565b86810360a088015261011c916102dc565b85810360c087015261012d916102dc565b9260e08501528301520390f35b909192503d8083833e61014d8183610301565b8101848282031261028557815167ffffffffffffffff928382116102815701916101209384848403126102665785519485018581108382111761026d578652835182811161026957836101a1918601610339565b85528684015182811161026957836101ba918601610339565b878601528584015186860152606084015182811161026957836101de918601610339565b6060860152608084015182811161026957836101fb918601610339565b608086015260a08401518281116102695783610218918601610339565b60a086015260c0840151918211610266575090610236918301610339565b60c083015261024760e08201610393565b60e083015261025a610100809201610393565b90820152903880610086565b80fd5b5080fd5b634e487b7160e01b82526041600452602482fd5b8480fd5b8280fd5b509051903d90823e3d90fd5b83903461026957816003193601126102695790546001600160a01b03168152602090f35b60005b8381106102cc5750506000910152565b81810151838201526020016102bc565b906020916102f5815180928185528580860191016102b9565b601f01601f1916010190565b90601f8019910116810190811067ffffffffffffffff82111761032357604052565b634e487b7160e01b600052604160045260246000fd5b81601f8201121561038e57805167ffffffffffffffff8111610323576040519261036d601f8301601f191660200185610301565b8184526020828401011161038e5761038b91602080850191016102b9565b90565b600080fd5b5190811515820361038e5756fea2646970667358221220c30754bdd6e5a290fea8294d6096b61e980befdb31aec259dcae4122fe7b8d7564736f6c63430008140033","opcodes":"PUSH1 0x80 CALLVALUE PUSH2 0x74 JUMPI PUSH1 0x1F PUSH2 0x466 CODESIZE DUP2 SWAP1 SUB SWAP2 DUP3 ADD PUSH1 0x1F NOT AND DUP4 ADD SWAP2 PUSH1 0x1 PUSH1 0x1 PUSH1 0x40 SHL SUB DUP4 GT DUP5 DUP5 LT OR PUSH2 0x79 JUMPI DUP1 DUP5 SWAP3 PUSH1 0x20 SWAP5 PUSH1 0x40 MSTORE DUP4 CODECOPY DUP2 ADD SUB SLT PUSH2 0x74 JUMPI MLOAD PUSH1 0x1 PUSH1 0x1 PUSH1 0xA0 SHL SUB DUP2 AND SWAP1 DUP2 SWAP1 SUB PUSH2 0x74 JUMPI PUSH1 0x0 DUP1 SLOAD PUSH1 0x1 PUSH1 0x1 PUSH1 0xA0 SHL SUB NOT AND SWAP2 SWAP1 SWAP2 OR SWAP1 SSTORE PUSH1 0x40 MLOAD PUSH2 0x3D6 SWAP1 DUP2 PUSH2 0x90 DUP3 CODECOPY RETURN JUMPDEST PUSH1 0x0 DUP1 REVERT JUMPDEST PUSH4 0x4E487B71 PUSH1 0xE0 SHL PUSH1 0x0 MSTORE PUSH1 0x41 PUSH1 0x4 MSTORE PUSH1 0x24 PUSH1 0x0 REVERT INVALID PUSH1 0x80 PUSH1 0x40 DUP2 DUP2 MSTORE PUSH1 0x4 CALLDATASIZE LT ISZERO PUSH2 0x14 JUMPI PUSH1 0x0 DUP1 REVERT JUMPDEST PUSH1 0x0 SWAP2 DUP3 CALLDATALOAD PUSH1 0xE0 SHR SWAP1 DUP2 PUSH4 0x3B70AB2C EQ PUSH2 0x295 JUMPI POP PUSH4 0xD735FE6A EQ PUSH2 0x38 JUMPI PUSH1 0x0 DUP1 REVERT JUMPDEST CALLVALUE PUSH2 0x269 JUMPI PUSH1 0x20 SWAP1 DUP2 PUSH1 0x3 NOT CALLDATASIZE ADD SLT PUSH2 0x285 JUMPI DUP3 SLOAD DUP2 MLOAD PUSH4 0xDE8211A9 PUSH1 0xE0 SHL DUP2 MSTORE PUSH1 0x4 DUP1 CALLDATALOAD SWAP1 DUP3 ADD MSTORE SWAP3 SWAP4 SWAP1 DUP2 SWAP1 DUP5 SWAP1 PUSH1 0x24 SWAP1 DUP3 SWAP1 PUSH1 0x1 PUSH1 0x1 PUSH1 0xA0 SHL SUB AND GAS STATICCALL SWAP3 DUP4 ISZERO PUSH2 0x289 JUMPI DUP2 SWAP4 PUSH2 0x13A JUMPI JUMPDEST POP POP DUP2 MLOAD SWAP2 DUP4 DUP2 ADD MLOAD SWAP1 DUP3 DUP2 ADD MLOAD SWAP3 PUSH1 0x60 DUP3 ADD MLOAD PUSH1 0x80 DUP4 ADD MLOAD PUSH1 0xA0 DUP5 ADD MLOAD SWAP2 PUSH1 0xC0 DUP6 ADD MLOAD SWAP4 PUSH1 0xE0 DUP7 ADD MLOAD ISZERO ISZERO SWAP8 PUSH2 0x100 DUP1 SWAP8 ADD MLOAD ISZERO ISZERO SWAP8 DUP3 MLOAD SWAP12 DUP13 SWAP12 DUP13 PUSH2 0x120 DUP1 SWAP2 MSTORE DUP14 ADD PUSH2 0xD4 SWAP2 PUSH2 0x2DC JUMP JUMPDEST SWAP1 DUP13 DUP3 SUB SWAP1 DUP14 ADD MSTORE PUSH2 0xE5 SWAP2 PUSH2 0x2DC JUMP JUMPDEST SWAP2 DUP11 ADD MSTORE DUP9 DUP2 SUB PUSH1 0x60 DUP11 ADD MSTORE PUSH2 0xFA SWAP2 PUSH2 0x2DC JUMP JUMPDEST DUP8 DUP2 SUB PUSH1 0x80 DUP10 ADD MSTORE PUSH2 0x10B SWAP2 PUSH2 0x2DC JUMP JUMPDEST DUP7 DUP2 SUB PUSH1 0xA0 DUP9 ADD MSTORE PUSH2 0x11C SWAP2 PUSH2 0x2DC JUMP JUMPDEST DUP6 DUP2 SUB PUSH1 0xC0 DUP8 ADD MSTORE PUSH2 0x12D SWAP2 PUSH2 0x2DC JUMP JUMPDEST SWAP3 PUSH1 0xE0 DUP6 ADD MSTORE DUP4 ADD MSTORE SUB SWAP1 RETURN JUMPDEST SWAP1 SWAP2 SWAP3 POP RETURNDATASIZE DUP1 DUP4 DUP4 RETURNDATACOPY PUSH2 0x14D DUP2 DUP4 PUSH2 0x301 JUMP JUMPDEST DUP2 ADD DUP5 DUP3 DUP3 SUB SLT PUSH2 0x285 JUMPI DUP2 MLOAD PUSH8 0xFFFFFFFFFFFFFFFF SWAP3 DUP4 DUP3 GT PUSH2 0x281 JUMPI ADD SWAP2 PUSH2 0x120 SWAP4 DUP5 DUP5 DUP5 SUB SLT PUSH2 0x266 JUMPI DUP6 MLOAD SWAP5 DUP6 ADD DUP6 DUP2 LT DUP4 DUP3 GT OR PUSH2 0x26D JUMPI DUP7 MSTORE DUP4 MLOAD DUP3 DUP2 GT PUSH2 0x269 JUMPI DUP4 PUSH2 0x1A1 SWAP2 DUP7 ADD PUSH2 0x339 JUMP JUMPDEST DUP6 MSTORE DUP7 DUP5 ADD MLOAD DUP3 DUP2 GT PUSH2 0x269 JUMPI DUP4 PUSH2 0x1BA SWAP2 DUP7 ADD PUSH2 0x339 JUMP JUMPDEST DUP8 DUP7 ADD MSTORE DUP6 DUP5 ADD MLOAD DUP7 DUP7 ADD MSTORE PUSH1 0x60 DUP5 ADD MLOAD DUP3 DUP2 GT PUSH2 0x269 JUMPI DUP4 PUSH2 0x1DE SWAP2 DUP7 ADD PUSH2 0x339 JUMP JUMPDEST PUSH1 0x60 DUP7 ADD MSTORE PUSH1 0x80 DUP5 ADD MLOAD DUP3 DUP2 GT PUSH2 0x269 JUMPI DUP4 PUSH2 0x1FB SWAP2 DUP7 ADD PUSH2 0x339 JUMP JUMPDEST PUSH1 0x80 DUP7 ADD MSTORE PUSH1 0xA0 DUP5 ADD MLOAD DUP3 DUP2 GT PUSH2 0x269 JUMPI DUP4 PUSH2 0x218 SWAP2 DUP7 ADD PUSH2 0x339 JUMP JUMPDEST PUSH1 0xA0 DUP7 ADD MSTORE PUSH1 0xC0 DUP5 ADD MLOAD SWAP2 DUP3 GT PUSH2 0x266 JUMPI POP SWAP1 PUSH2 0x236 SWAP2 DUP4 ADD PUSH2 0x339 JUMP JUMPDEST PUSH1 0xC0 DUP4 ADD MSTORE PUSH2 0x247 PUSH1 0xE0 DUP3 ADD PUSH2 0x393 JUMP JUMPDEST PUSH1 0xE0 DUP4 ADD MSTORE PUSH2 0x25A PUSH2 0x100 DUP1 SWAP3 ADD PUSH2 0x393 JUMP JUMPDEST SWAP1 DUP3 ADD MSTORE SWAP1 CODESIZE DUP1 PUSH2 0x86 JUMP JUMPDEST DUP1 REVERT JUMPDEST POP DUP1 REVERT JUMPDEST PUSH4 0x4E487B71 PUSH1 0xE0 SHL DUP3 MSTORE PUSH1 0x41 PUSH1 0x4 MSTORE PUSH1 0x24 DUP3 REVERT JUMPDEST DUP5 DUP1 REVERT JUMPDEST DUP3 DUP1 REVERT JUMPDEST POP SWAP1 MLOAD SWAP1 RETURNDATASIZE SWAP1 DUP3 RETURNDATACOPY RETURNDATASIZE SWAP1 REVERT JUMPDEST DUP4 SWAP1 CALLVALUE PUSH2 0x269 JUMPI DUP2 PUSH1 0x3 NOT CALLDATASIZE ADD SLT PUSH2 0x269 JUMPI SWAP1 SLOAD PUSH1 0x1 PUSH1 0x1 PUSH1 0xA0 SHL SUB AND DUP2 MSTORE PUSH1 0x20 SWAP1 RETURN JUMPDEST PUSH1 0x0 JUMPDEST DUP4 DUP2 LT PUSH2 0x2CC JUMPI POP POP PUSH1 0x0 SWAP2 ADD MSTORE JUMP JUMPDEST DUP2 DUP2 ADD MLOAD DUP4 DUP3 ADD MSTORE PUSH1 0x20 ADD PUSH2 0x2BC JUMP JUMPDEST SWAP1 PUSH1 0x20 SWAP2 PUSH2 0x2F5 DUP2 MLOAD DUP1 SWAP3 DUP2 DUP6 MSTORE DUP6 DUP1 DUP7 ADD SWAP2 ADD PUSH2 0x2B9 JUMP JUMPDEST PUSH1 0x1F ADD PUSH1 0x1F NOT AND ADD ADD SWAP1 JUMP JUMPDEST SWAP1 PUSH1 0x1F DUP1 NOT SWAP2 ADD AND DUP2 ADD SWAP1 DUP2 LT PUSH8 0xFFFFFFFFFFFFFFFF DUP3 GT OR PUSH2 0x323 JUMPI PUSH1 0x40 MSTORE JUMP JUMPDEST PUSH4 0x4E487B71 PUSH1 0xE0 SHL PUSH1 0x0 MSTORE PUSH1 0x41 PUSH1 0x4 MSTORE PUSH1 0x24 PUSH1 0x0 REVERT JUMPDEST DUP2 PUSH1 0x1F DUP3 ADD SLT ISZERO PUSH2 0x38E JUMPI DUP1 MLOAD PUSH8 0xFFFFFFFFFFFFFFFF DUP2 GT PUSH2 0x323 JUMPI PUSH1 0x40 MLOAD SWAP3 PUSH2 0x36D PUSH1 0x1F DUP4 ADD PUSH1 0x1F NOT AND PUSH1 0x20 ADD DUP6 PUSH2 0x301 JUMP JUMPDEST DUP2 DUP5 MSTORE PUSH1 0x20 DUP3 DUP5 ADD ADD GT PUSH2 0x38E JUMPI PUSH2 0x38B SWAP2 PUSH1 0x20 DUP1 DUP6 ADD SWAP2 ADD PUSH2 0x2B9 JUMP JUMPDEST SWAP1 JUMP JUMPDEST PUSH1 0x0 DUP1 REVERT JUMPDEST MLOAD SWAP1 DUP2 ISZERO ISZERO DUP3 SUB PUSH2 0x38E JUMPI JUMP INVALID LOG2 PUSH5 0x6970667358 0x22 SLT KECCAK256 0xC3 SMOD SLOAD 0xBD 0xD6 0xE5 LOG2 SWAP1 INVALID 0xA8 0x29 0x4D PUSH1 0x96 0xB6 0x1E SWAP9 SIGNEXTEND 0xEF 0xDB BALANCE 0xAE 0xC2 MSIZE 0xDC 0xAE COINBASE 0x22 INVALID PUSH28 0x8D7564736F6C63430008140033000000000000000000000000000000 "},"methodIdentifiers":{"deliveryStorage()":"3b70ab2c","trackDelivery(uint256)":"d735fe6a"}}}}}