{"contracts/DeliveryStorage.sol":{"DeliveryStorage":{"abi":[{"anonymous":false,"inputs":[{"indexed":true,"internalType":"uint256","name":"trackingId","type":"uint256"},{"indexed":false,"internalType":"string","name":"nametag","type":"string"},{"indexed":false,"internalType":"string","name":"pickupStation","type":"string"}],"name":"DeliveryCreated","type":"event"},{"anonymous":false,"inputs":[{"indexed":true,"internalType":"uint256","name":"trackingId","type":"uint256"}],"name":"DeliveryVerified","type":"event"},{"anonymous":false,"inputs":[{"indexed":true,"internalType":"uint256","name":"trackingId","type":"uint256"}],"name":"PaymentIssued","type":"event"},{"inputs":[{"internalType":"string","name":"_nametag","type":"string"},{"internalType":"string","name":"_pickupStation","type":"string"},{"internalType":"uint256","name":"_amount","type":"uint256"},{"internalType":"string","name":"_recipientName","type":"string"},{"internalType":"string","name":"_senderName","type":"string"},{"internalType":"string","name":"_recipientPhone","type":"string"},{"internalType":"string","name":"_senderPhone","type":"string"}],"name":"createDelivery","outputs":[],"stateMutability":"nonpayable","type":"function"},{"inputs":[{"internalType":"uint256","name":"","type":"uint256"}],"name":"deliveries","outputs":[{"internalType":"string","name":"nametag","type":"string"},{"internalType":"string","name":"pickupStation","type":"string"},{"internalType":"uint256","name":"amount","type":"uint256"},{"internalType":"string","name":"recipientName","type":"string"},{"internalType":"string","name":"senderName","type":"string"},{"internalType":"string","name":"recipientPhone","type":"string"},{"internalType":"string","name":"senderPhone","type":"string"},{"internalType":"bool","name":"isVerified","type":"bool"},{"internalType":"bool","name":"isPaid","type":"bool"}],"stateMutability":"view","type":"function"},{"inputs":[{"internalType":"uint256","name":"_trackingId","type":"uint256"}],"name":"getDelivery","outputs":[{"components":[{"internalType":"string","name":"nametag","type":"string"},{"internalType":"string","name":"pickupStation","type":"string"},{"internalType":"uint256","name":"amount","type":"uint256"},{"internalType":"string","name":"recipientName","type":"string"},{"internalType":"string","name":"senderName","type":"string"},{"internalType":"string","name":"recipientPhone","type":"string"},{"internalType":"string","name":"senderPhone","type":"string"},{"internalType":"bool","name":"isVerified","type":"bool"},{"internalType":"bool","name":"isPaid","type":"bool"}],"internalType":"struct DeliveryStorage.Delivery","name":"","type":"tuple"}],"stateMutability":"view","type":"function"},{"inputs":[{"internalType":"uint256","name":"_trackingId","type":"uint256"}],"name":"markPaid","outputs":[],"stateMutability":"nonpayable","type":"function"},{"inputs":[{"internalType":"uint256","name":"_trackingId","type":"uint256"}],"name":"markVerified","outputs":[],"stateMutability":"nonpayable","type":"function"},{"inputs":[],"name":"nextTrackingId","outputs":[{"internalType":"uint256","name":"","type":"uint256"}],"stateMutability":"view","type":"function"}],"evm":{"bytecode":{"linkReferences":{},"object":"60808060405234610016576110cb908161001c8239f35b600080fdfe608080604052600436101561001357600080fd5b60003560e01c9081632535ec7414610e47575080635b8929c414610d92578063a9e4a32414610c8d578063ad207e1e14610b7a578063b5d730d91461022e5763de8211a91461006157600080fd5b3461022957602080600319360112610229576040516004359161008382610e9c565b6060928383528382840152604083016000905283808401528360808401528360a08401528360c084015260e08301600090526101008093016000905260015481106100cd90611053565b60005260008152604060002090604051926100e784610e9c565b6100f083610ed9565b84526100fe60018401610ed9565b848301908152600284015460408601908152919061011e60038601610ed9565b8688019081529461013160048201610ed9565b6080880190815261014460058301610ed9565b60a089019081529061015860068401610ed9565b9260c08a01938452600701549560e08a019860ff881615158a52868b019760081c60ff16151588526040519b8c9b8a8d52518c6101209b8c9101526101408d016101a191610f7f565b9651601f198d8903810160408f0152976101ba91610f7f565b9251908c01525190858b82030160808c01526101d591610f7f565b905190848a82030160a08b01526101eb91610f7f565b905190838982030160c08a015261020191610f7f565b9051918782030160e088015261021691610f7f565b9351151590850152511515908301520390f35b600080fd5b346102295760e0366003190112610229576004356001600160401b0381116102295761025e903690600401610fbf565b906024356001600160401b0381116102295761027e903690600401610fbf565b9190926064356001600160401b038111610229576102a0903690600401610fbf565b9490936084356001600160401b038111610229576102c2903690600401610fbf565b9060a4356001600160401b038111610229576102e2903690600401610fbf565b60c4356001600160401b03811161022957610301903690600401610fbf565b9390946001549a6000198c14610b645760018c016001556040519c6103258e610e9c565b8d610331368d8f610fec565b90528d61033f368b8d610fec565b90602001528d6044359060400152369061035892610fec565b60608d0152369061036892610fec565b60808b0152369061037892610fec565b60a0890152369061038892610fec565b60c087015260e086016000905261010086016000905284600052600060205260406000209580518051906001600160401b0382116107475781906103cc8a54610e62565b601f8111610b14575b50602090601f8311600114610aa857600092610a9d575b50508160011b916000199060031b1c19161787555b60208101518051906001600160401b03821161074757819061042660018b0154610e62565b601f8111610a4a575b50602090601f83116001146109d8576000926109cd575b50508160011b916000199060031b1c19161760018801555b6040810151600288015560608101518051906001600160401b03821161074757819061048d60038b0154610e62565b601f811161097a575b50602090601f8311600114610908576000926108fd575b50508160011b916000199060031b1c19161760038801555b60808101518051906001600160401b0382116107475781906104ea60048b0154610e62565b601f81116108aa575b50602090601f83116001146108385760009261082d575b50508160011b916000199060031b1c19161760048801555b60a08101518051906001600160401b03821161074757819061054760058b0154610e62565b601f81116107da575b50602090601f83116001146107685760009261075d575b50508160011b916000199060031b1c19161760058801555b60c08101519687516001600160401b038111610747576105a26006830154610e62565b601f8111610700575b506020601f8211600114610666579181600792610656979695947fcea9ac5e0f0dc54e3b85c0978a717c9928150737d8fef119b4e080c2af121f689b9c60009261065b575b50508160011b916000199060031b1c19161760068201555b019060e081015115159060ff61ff006101008554930151151560081b1692169061ffff191617179055610648604051958695604087526040870191611032565b918483036020860152611032565b0390a2005b015190508c806105f0565b6006830160005260206000209960005b601f19841681106106e85750827fcea9ac5e0f0dc54e3b85c0978a717c9928150737d8fef119b4e080c2af121f689a9b6106569897969593600193600796601f198116106106cf575b505050811b016006820155610608565b015160001960f88460031b161c191690558c80806106bf565b828201518c556001909b019a60209283019201610676565b600683016000526020600020601f830160051c810160208410610740575b601f830160051c820181106107345750506105ab565b6000815560010161071e565b508061071e565b634e487b7160e01b600052604160045260246000fd5b015190508980610567565b925060058a016000526020600020906000935b601f19841685106107bf576001945083601f198116106107a6575b505050811b01600588015561057f565b015160001960f88460031b161c19169055898080610796565b8181015183556020948501946001909301929091019061077b565b90915060058a016000526020600020601f840160051c810160208510610826575b90849392915b601f830160051c82018110610817575050610550565b60008155859450600101610801565b50806107fb565b01519050898061050a565b925060048a016000526020600020906000935b601f198416851061088f576001945083601f19811610610876575b505050811b016004880155610522565b015160001960f88460031b161c19169055898080610866565b8181015183556020948501946001909301929091019061084b565b90915060048a016000526020600020601f840160051c8101602085106108f6575b90849392915b601f830160051c820181106108e75750506104f3565b600081558594506001016108d1565b50806108cb565b0151905089806104ad565b925060038a016000526020600020906000935b601f198416851061095f576001945083601f19811610610946575b505050811b0160038801556104c5565b015160001960f88460031b161c19169055898080610936565b8181015183556020948501946001909301929091019061091b565b90915060038a016000526020600020601f840160051c8101602085106109c6575b90849392915b601f830160051c820181106109b7575050610496565b600081558594506001016109a1565b508061099b565b015190508980610446565b925060018a016000526020600020906000935b601f1984168510610a2f576001945083601f19811610610a16575b505050811b01600188015561045e565b015160001960f88460031b161c19169055898080610a06565b818101518355602094850194600190930192909101906109eb565b90915060018a016000526020600020601f840160051c810160208510610a96575b90849392915b601f830160051c82018110610a8757505061042f565b60008155859450600101610a71565b5080610a6b565b0151905089806103ec565b9250896000526020600020906000935b601f1984168510610af9576001945083601f19811610610ae0575b505050811b018755610401565b015160001960f88460031b161c19169055898080610ad3565b81810151835560209485019460019093019290910190610ab8565b909150896000526020600020601f840160051c810160208510610b5d575b90849392915b601f830160051c82018110610b4e5750506103d5565b60008155859450600101610b38565b5080610b32565b634e487b7160e01b600052601160045260246000fd5b34610229576020806003193601126102295760043590610b9d6001548310611053565b816000526000815260ff6007604060002001541615610c5157816000526000815260ff60076040600020015460081c16610c145760009082825252600760406000200161010061ff00198254161790557fbbc7bdbbb0e5fc8247f420aea3ee1ccb3de5af816cd9a8612ea279970455f552600080a2005b6064906040519062461bcd60e51b82526004820152601660248201527514185e5b595b9d08185b1c9958591e481a5cdcdd595960521b6044820152fd5b6064906040519062461bcd60e51b82526004820152601560248201527411195b1a5d995c9e481b9bdd081d995c9a599a5959605a1b6044820152fd5b346102295760203660031901126102295760043560005260006020526040600020610d2c610cba82610ed9565b60ff610d77610ccb60018601610ed9565b94610d696002820154610d5b610ce360038501610ed9565b91610d4d610cf360048701610ed9565b91610d0060058801610ed9565b94610d3a6007610d1260068b01610ed9565b9901549b6040519e8f9e8f92610120808552840190610f7f565b916020818403910152610f7f565b9160408d01528b820360608d0152610f7f565b9089820360808b0152610f7f565b9087820360a0890152610f7f565b9085820360c0870152610f7f565b91818116151560e085015260081c1615156101008301520390f35b3461022957602036600319011261022957600435610db36001548210611053565b80600052600060205260ff60076040600020015416610e0f578060005260006020526007604060002001600160ff198254161790557f71aa2db59ded58f085b69c1fda199f5e07af21b2f224ec68efb290c0e668bb2a600080a2005b60405162461bcd60e51b815260206004820152601060248201526f105b1c9958591e481d995c9a599a595960821b6044820152606490fd5b34610229576000366003190112610229576020906001548152f35b90600182811c92168015610e92575b6020831014610e7c57565b634e487b7160e01b600052602260045260246000fd5b91607f1691610e71565b61012081019081106001600160401b0382111761074757604052565b90601f801991011681019081106001600160401b0382111761074757604052565b9060405191826000825492610eed84610e62565b908184526001948581169081600014610f5c5750600114610f19575b5050610f1792500383610eb8565b565b9093915060005260209081600020936000915b818310610f44575050610f1793508201013880610f09565b85548884018501529485019487945091830191610f2c565b915050610f1794506020925060ff191682840152151560051b8201013880610f09565b919082519283825260005b848110610fab575050826000602080949584010152601f8019910116010190565b602081830181015184830182015201610f8a565b9181601f84011215610229578235916001600160401b038311610229576020838186019501011161022957565b9291926001600160401b0382116107475760405191611015601f8201601f191660200184610eb8565b829481845281830111610229578281602093846000960137010152565b908060209392818452848401376000828201840152601f01601f1916010190565b1561105a57565b60405162461bcd60e51b8152602060048201526013602482015272125b9d985b1a59081d1c9858dada5b99c81251606a1b6044820152606490fdfea26469706673582212201a1cdc0373484452d74fc507987d95749ec396a953a19c4f0489c3e1d627b83764736f6c63430008140033","opcodes":"PUSH1 0x80 DUP1 PUSH1 0x40 MSTORE CALLVALUE PUSH2 0x16 JUMPI PUSH2 0x10CB SWAP1 DUP2 PUSH2 0x1C DUP3 CODECOPY RETURN JUMPDEST PUSH1 0x0 DUP1 REVERT INVALID PUSH1 0x80 DUP1 PUSH1 0x40 MSTORE PUSH1 0x4 CALLDATASIZE LT ISZERO PUSH2 0x13 JUMPI PUSH1 0x0 DUP1 REVERT JUMPDEST PUSH1 0x0 CALLDATALOAD PUSH1 0xE0 SHR SWAP1 DUP2 PUSH4 0x2535EC74 EQ PUSH2 0xE47 JUMPI POP DUP1 PUSH4 0x5B8929C4 EQ PUSH2 0xD92 JUMPI DUP1 PUSH4 0xA9E4A324 EQ PUSH2 0xC8D JUMPI DUP1 PUSH4 0xAD207E1E EQ PUSH2 0xB7A JUMPI DUP1 PUSH4 0xB5D730D9 EQ PUSH2 0x22E JUMPI PUSH4 0xDE8211A9 EQ PUSH2 0x61 JUMPI PUSH1 0x0 DUP1 REVERT JUMPDEST CALLVALUE PUSH2 0x229 JUMPI PUSH1 0x20 DUP1 PUSH1 0x3 NOT CALLDATASIZE ADD SLT PUSH2 0x229 JUMPI PUSH1 0x40 MLOAD PUSH1 0x4 CALLDATALOAD SWAP2 PUSH2 0x83 DUP3 PUSH2 0xE9C JUMP JUMPDEST PUSH1 0x60 SWAP3 DUP4 DUP4 MSTORE DUP4 DUP3 DUP5 ADD MSTORE PUSH1 0x40 DUP4 ADD PUSH1 0x0 SWAP1 MSTORE DUP4 DUP1 DUP5 ADD MSTORE DUP4 PUSH1 0x80 DUP5 ADD MSTORE DUP4 PUSH1 0xA0 DUP5 ADD MSTORE DUP4 PUSH1 0xC0 DUP5 ADD MSTORE PUSH1 0xE0 DUP4 ADD PUSH1 0x0 SWAP1 MSTORE PUSH2 0x100 DUP1 SWAP4 ADD PUSH1 0x0 SWAP1 MSTORE PUSH1 0x1 SLOAD DUP2 LT PUSH2 0xCD SWAP1 PUSH2 0x1053 JUMP JUMPDEST PUSH1 0x0 MSTORE PUSH1 0x0 DUP2 MSTORE PUSH1 0x40 PUSH1 0x0 KECCAK256 SWAP1 PUSH1 0x40 MLOAD SWAP3 PUSH2 0xE7 DUP5 PUSH2 0xE9C JUMP JUMPDEST PUSH2 0xF0 DUP4 PUSH2 0xED9 JUMP JUMPDEST DUP5 MSTORE PUSH2 0xFE PUSH1 0x1 DUP5 ADD PUSH2 0xED9 JUMP JUMPDEST DUP5 DUP4 ADD SWAP1 DUP2 MSTORE PUSH1 0x2 DUP5 ADD SLOAD PUSH1 0x40 DUP7 ADD SWAP1 DUP2 MSTORE SWAP2 SWAP1 PUSH2 0x11E PUSH1 0x3 DUP7 ADD PUSH2 0xED9 JUMP JUMPDEST DUP7 DUP9 ADD SWAP1 DUP2 MSTORE SWAP5 PUSH2 0x131 PUSH1 0x4 DUP3 ADD PUSH2 0xED9 JUMP JUMPDEST PUSH1 0x80 DUP9 ADD SWAP1 DUP2 MSTORE PUSH2 0x144 PUSH1 0x5 DUP4 ADD PUSH2 0xED9 JUMP JUMPDEST PUSH1 0xA0 DUP10 ADD SWAP1 DUP2 MSTORE SWAP1 PUSH2 0x158 PUSH1 0x6 DUP5 ADD PUSH2 0xED9 JUMP JUMPDEST SWAP3 PUSH1 0xC0 DUP11 ADD SWAP4 DUP5 MSTORE PUSH1 0x7 ADD SLOAD SWAP6 PUSH1 0xE0 DUP11 ADD SWAP9 PUSH1 0xFF DUP9 AND ISZERO ISZERO DUP11 MSTORE DUP7 DUP12 ADD SWAP8 PUSH1 0x8 SHR PUSH1 0xFF AND ISZERO ISZERO DUP9 MSTORE PUSH1 0x40 MLOAD SWAP12 DUP13 SWAP12 DUP11 DUP14 MSTORE MLOAD DUP13 PUSH2 0x120 SWAP12 DUP13 SWAP2 ADD MSTORE PUSH2 0x140 DUP14 ADD PUSH2 0x1A1 SWAP2 PUSH2 0xF7F JUMP JUMPDEST SWAP7 MLOAD PUSH1 0x1F NOT DUP14 DUP10 SUB DUP2 ADD PUSH1 0x40 DUP16 ADD MSTORE SWAP8 PUSH2 0x1BA SWAP2 PUSH2 0xF7F JUMP JUMPDEST SWAP3 MLOAD SWAP1 DUP13 ADD MSTORE MLOAD SWAP1 DUP6 DUP12 DUP3 SUB ADD PUSH1 0x80 DUP13 ADD MSTORE PUSH2 0x1D5 SWAP2 PUSH2 0xF7F JUMP JUMPDEST SWAP1 MLOAD SWAP1 DUP5 DUP11 DUP3 SUB ADD PUSH1 0xA0 DUP12 ADD MSTORE PUSH2 0x1EB SWAP2 PUSH2 0xF7F JUMP JUMPDEST SWAP1 MLOAD SWAP1 DUP4 DUP10 DUP3 SUB ADD PUSH1 0xC0 DUP11 ADD MSTORE PUSH2 0x201 SWAP2 PUSH2 0xF7F JUMP JUMPDEST SWAP1 MLOAD SWAP2 DUP8 DUP3 SUB ADD PUSH1 0xE0 DUP9 ADD MSTORE PUSH2 0x216 SWAP2 PUSH2 0xF7F JUMP JUMPDEST SWAP4 MLOAD ISZERO ISZERO SWAP1 DUP6 ADD MSTORE MLOAD ISZERO ISZERO SWAP1 DUP4 ADD MSTORE SUB SWAP1 RETURN JUMPDEST PUSH1 0x0 DUP1 REVERT JUMPDEST CALLVALUE PUSH2 0x229 JUMPI PUSH1 0xE0 CALLDATASIZE PUSH1 0x3 NOT ADD SLT PUSH2 0x229 JUMPI PUSH1 0x4 CALLDATALOAD PUSH1 0x1 PUSH1 0x1 PUSH1 0x40 SHL SUB DUP2 GT PUSH2 0x229 JUMPI PUSH2 0x25E SWAP1 CALLDATASIZE SWAP1 PUSH1 0x4 ADD PUSH2 0xFBF JUMP JUMPDEST SWAP1 PUSH1 0x24 CALLDATALOAD PUSH1 0x1 PUSH1 0x1 PUSH1 0x40 SHL SUB DUP2 GT PUSH2 0x229 JUMPI PUSH2 0x27E SWAP1 CALLDATASIZE SWAP1 PUSH1 0x4 ADD PUSH2 0xFBF JUMP JUMPDEST SWAP2 SWAP1 SWAP3 PUSH1 0x64 CALLDATALOAD PUSH1 0x1 PUSH1 0x1 PUSH1 0x40 SHL SUB DUP2 GT PUSH2 0x229 JUMPI PUSH2 0x2A0 SWAP1 CALLDATASIZE SWAP1 PUSH1 0x4 ADD PUSH2 0xFBF JUMP JUMPDEST SWAP5 SWAP1 SWAP4 PUSH1 0x84 CALLDATALOAD PUSH1 0x1 PUSH1 0x1 PUSH1 0x40 SHL SUB DUP2 GT PUSH2 0x229 JUMPI PUSH2 0x2C2 SWAP1 CALLDATASIZE SWAP1 PUSH1 0x4 ADD PUSH2 0xFBF JUMP JUMPDEST SWAP1 PUSH1 0xA4 CALLDATALOAD PUSH1 0x1 PUSH1 0x1 PUSH1 0x40 SHL SUB DUP2 GT PUSH2 0x229 JUMPI PUSH2 0x2E2 SWAP1 CALLDATASIZE SWAP1 PUSH1 0x4 ADD PUSH2 0xFBF JUMP JUMPDEST PUSH1 0xC4 CALLDATALOAD PUSH1 0x1 PUSH1 0x1 PUSH1 0x40 SHL SUB DUP2 GT PUSH2 0x229 JUMPI PUSH2 0x301 SWAP1 CALLDATASIZE SWAP1 PUSH1 0x4 ADD PUSH2 0xFBF JUMP JUMPDEST SWAP4 SWAP1 SWAP5 PUSH1 0x1 SLOAD SWAP11 PUSH1 0x0 NOT DUP13 EQ PUSH2 0xB64 JUMPI PUSH1 0x1 DUP13 ADD PUSH1 0x1 SSTORE PUSH1 0x40 MLOAD SWAP13 PUSH2 0x325 DUP15 PUSH2 0xE9C JUMP JUMPDEST DUP14 PUSH2 0x331 CALLDATASIZE DUP14 DUP16 PUSH2 0xFEC JUMP JUMPDEST SWAP1 MSTORE DUP14 PUSH2 0x33F CALLDATASIZE DUP12 DUP14 PUSH2 0xFEC JUMP JUMPDEST SWAP1 PUSH1 0x20 ADD MSTORE DUP14 PUSH1 0x44 CALLDATALOAD SWAP1 PUSH1 0x40 ADD MSTORE CALLDATASIZE SWAP1 PUSH2 0x358 SWAP3 PUSH2 0xFEC JUMP JUMPDEST PUSH1 0x60 DUP14 ADD MSTORE CALLDATASIZE SWAP1 PUSH2 0x368 SWAP3 PUSH2 0xFEC JUMP JUMPDEST PUSH1 0x80 DUP12 ADD MSTORE CALLDATASIZE SWAP1 PUSH2 0x378 SWAP3 PUSH2 0xFEC JUMP JUMPDEST PUSH1 0xA0 DUP10 ADD MSTORE CALLDATASIZE SWAP1 PUSH2 0x388 SWAP3 PUSH2 0xFEC JUMP JUMPDEST PUSH1 0xC0 DUP8 ADD MSTORE PUSH1 0xE0 DUP7 ADD PUSH1 0x0 SWAP1 MSTORE PUSH2 0x100 DUP7 ADD PUSH1 0x0 SWAP1 MSTORE DUP5 PUSH1 0x0 MSTORE PUSH1 0x0 PUSH1 0x20 MSTORE PUSH1 0x40 PUSH1 0x0 KECCAK256 SWAP6 DUP1 MLOAD DUP1 MLOAD SWAP1 PUSH1 0x1 PUSH1 0x1 PUSH1 0x40 SHL SUB DUP3 GT PUSH2 0x747 JUMPI DUP2 SWAP1 PUSH2 0x3CC DUP11 SLOAD PUSH2 0xE62 JUMP JUMPDEST PUSH1 0x1F DUP2 GT PUSH2 0xB14 JUMPI JUMPDEST POP PUSH1 0x20 SWAP1 PUSH1 0x1F DUP4 GT PUSH1 0x1 EQ PUSH2 0xAA8 JUMPI PUSH1 0x0 SWAP3 PUSH2 0xA9D JUMPI JUMPDEST POP POP DUP2 PUSH1 0x1 SHL SWAP2 PUSH1 0x0 NOT SWAP1 PUSH1 0x3 SHL SHR NOT AND OR DUP8 SSTORE JUMPDEST PUSH1 0x20 DUP2 ADD MLOAD DUP1 MLOAD SWAP1 PUSH1 0x1 PUSH1 0x1 PUSH1 0x40 SHL SUB DUP3 GT PUSH2 0x747 JUMPI DUP2 SWAP1 PUSH2 0x426 PUSH1 0x1 DUP12 ADD SLOAD PUSH2 0xE62 JUMP JUMPDEST PUSH1 0x1F DUP2 GT PUSH2 0xA4A JUMPI JUMPDEST POP PUSH1 0x20 SWAP1 PUSH1 0x1F DUP4 GT PUSH1 0x1 EQ PUSH2 0x9D8 JUMPI PUSH1 0x0 SWAP3 PUSH2 0x9CD JUMPI JUMPDEST POP POP DUP2 PUSH1 0x1 SHL SWAP2 PUSH1 0x0 NOT SWAP1 PUSH1 0x3 SHL SHR NOT AND OR PUSH1 0x1 DUP9 ADD SSTORE JUMPDEST PUSH1 0x40 DUP2 ADD MLOAD PUSH1 0x2 DUP9 ADD SSTORE PUSH1 0x60 DUP2 ADD MLOAD DUP1 MLOAD SWAP1 PUSH1 0x1 PUSH1 0x1 PUSH1 0x40 SHL SUB DUP3 GT PUSH2 0x747 JUMPI DUP2 SWAP1 PUSH2 0x48D PUSH1 0x3 DUP12 ADD SLOAD PUSH2 0xE62 JUMP JUMPDEST PUSH1 0x1F DUP2 GT PUSH2 0x97A JUMPI JUMPDEST POP PUSH1 0x20 SWAP1 PUSH1 0x1F DUP4 GT PUSH1 0x1 EQ PUSH2 0x908 JUMPI PUSH1 0x0 SWAP3 PUSH2 0x8FD JUMPI JUMPDEST POP POP DUP2 PUSH1 0x1 SHL SWAP2 PUSH1 0x0 NOT SWAP1 PUSH1 0x3 SHL SHR NOT AND OR PUSH1 0x3 DUP9 ADD SSTORE JUMPDEST PUSH1 0x80 DUP2 ADD MLOAD DUP1 MLOAD SWAP1 PUSH1 0x1 PUSH1 0x1 PUSH1 0x40 SHL SUB DUP3 GT PUSH2 0x747 JUMPI DUP2 SWAP1 PUSH2 0x4EA PUSH1 0x4 DUP12 ADD SLOAD PUSH2 0xE62 JUMP JUMPDEST PUSH1 0x1F DUP2 GT PUSH2 0x8AA JUMPI JUMPDEST POP PUSH1 0x20 SWAP1 PUSH1 0x1F DUP4 GT PUSH1 0x1 EQ PUSH2 0x838 JUMPI PUSH1 0x0 SWAP3 PUSH2 0x82D JUMPI JUMPDEST POP POP DUP2 PUSH1 0x1 SHL SWAP2 PUSH1 0x0 NOT SWAP1 PUSH1 0x3 SHL SHR NOT AND OR PUSH1 0x4 DUP9 ADD SSTORE JUMPDEST PUSH1 0xA0 DUP2 ADD MLOAD DUP1 MLOAD SWAP1 PUSH1 0x1 PUSH1 0x1 PUSH1 0x40 SHL SUB DUP3 GT PUSH2 0x747 JUMPI DUP2 SWAP1 PUSH2 0x547 PUSH1 0x5 DUP12 ADD SLOAD PUSH2 0xE62 JUMP JUMPDEST PUSH1 0x1F DUP2 GT PUSH2 0x7DA JUMPI JUMPDEST POP PUSH1 0x20 SWAP1 PUSH1 0x1F DUP4 GT PUSH1 0x1 EQ PUSH2 0x768 JUMPI PUSH1 0x0 SWAP3 PUSH2 0x75D JUMPI JUMPDEST POP POP DUP2 PUSH1 0x1 SHL SWAP2 PUSH1 0x0 NOT SWAP1 PUSH1 0x3 SHL SHR NOT AND OR PUSH1 0x5 DUP9 ADD SSTORE JUMPDEST PUSH1 0xC0 DUP2 ADD MLOAD SWAP7 DUP8 MLOAD PUSH1 0x1 PUSH1 0x1 PUSH1 0x40 SHL SUB DUP2 GT PUSH2 0x747 JUMPI PUSH2 0x5A2 PUSH1 0x6 DUP4 ADD SLOAD PUSH2 0xE62 JUMP JUMPDEST PUSH1 0x1F DUP2 GT PUSH2 0x700 JUMPI JUMPDEST POP PUSH1 0x20 PUSH1 0x1F DUP3 GT PUSH1 0x1 EQ PUSH2 0x666 JUMPI SWAP2 DUP2 PUSH1 0x7 SWAP3 PUSH2 0x656 SWAP8 SWAP7 SWAP6 SWAP5 PUSH32 0xCEA9AC5E0F0DC54E3B85C0978A717C9928150737D8FEF119B4E080C2AF121F68 SWAP12 SWAP13 PUSH1 0x0 SWAP3 PUSH2 0x65B JUMPI JUMPDEST POP POP DUP2 PUSH1 0x1 SHL SWAP2 PUSH1 0x0 NOT SWAP1 PUSH1 0x3 SHL SHR NOT AND OR PUSH1 0x6 DUP3 ADD SSTORE JUMPDEST ADD SWAP1 PUSH1 0xE0 DUP2 ADD MLOAD ISZERO ISZERO SWAP1 PUSH1 0xFF PUSH2 0xFF00 PUSH2 0x100 DUP6 SLOAD SWAP4 ADD MLOAD ISZERO ISZERO PUSH1 0x8 SHL AND SWAP3 AND SWAP1 PUSH2 0xFFFF NOT AND OR OR SWAP1 SSTORE PUSH2 0x648 PUSH1 0x40 MLOAD SWAP6 DUP7 SWAP6 PUSH1 0x40 DUP8 MSTORE PUSH1 0x40 DUP8 ADD SWAP2 PUSH2 0x1032 JUMP JUMPDEST SWAP2 DUP5 DUP4 SUB PUSH1 0x20 DUP7 ADD MSTORE PUSH2 0x1032 JUMP JUMPDEST SUB SWAP1 LOG2 STOP JUMPDEST ADD MLOAD SWAP1 POP DUP13 DUP1 PUSH2 0x5F0 JUMP JUMPDEST PUSH1 0x6 DUP4 ADD PUSH1 0x0 MSTORE PUSH1 0x20 PUSH1 0x0 KECCAK256 SWAP10 PUSH1 0x0 JUMPDEST PUSH1 0x1F NOT DUP5 AND DUP2 LT PUSH2 0x6E8 JUMPI POP DUP3 PUSH32 0xCEA9AC5E0F0DC54E3B85C0978A717C9928150737D8FEF119B4E080C2AF121F68 SWAP11 SWAP12 PUSH2 0x656 SWAP9 SWAP8 SWAP7 SWAP6 SWAP4 PUSH1 0x1 SWAP4 PUSH1 0x7 SWAP7 PUSH1 0x1F NOT DUP2 AND LT PUSH2 0x6CF JUMPI JUMPDEST POP POP POP DUP2 SHL ADD PUSH1 0x6 DUP3 ADD SSTORE PUSH2 0x608 JUMP JUMPDEST ADD MLOAD PUSH1 0x0 NOT PUSH1 0xF8 DUP5 PUSH1 0x3 SHL AND SHR NOT AND SWAP1 SSTORE DUP13 DUP1 DUP1 PUSH2 0x6BF JUMP JUMPDEST DUP3 DUP3 ADD MLOAD DUP13 SSTORE PUSH1 0x1 SWAP1 SWAP12 ADD SWAP11 PUSH1 0x20 SWAP3 DUP4 ADD SWAP3 ADD PUSH2 0x676 JUMP JUMPDEST PUSH1 0x6 DUP4 ADD PUSH1 0x0 MSTORE PUSH1 0x20 PUSH1 0x0 KECCAK256 PUSH1 0x1F DUP4 ADD PUSH1 0x5 SHR DUP2 ADD PUSH1 0x20 DUP5 LT PUSH2 0x740 JUMPI JUMPDEST PUSH1 0x1F DUP4 ADD PUSH1 0x5 SHR DUP3 ADD DUP2 LT PUSH2 0x734 JUMPI POP POP PUSH2 0x5AB JUMP JUMPDEST PUSH1 0x0 DUP2 SSTORE PUSH1 0x1 ADD PUSH2 0x71E JUMP JUMPDEST POP DUP1 PUSH2 0x71E JUMP JUMPDEST PUSH4 0x4E487B71 PUSH1 0xE0 SHL PUSH1 0x0 MSTORE PUSH1 0x41 PUSH1 0x4 MSTORE PUSH1 0x24 PUSH1 0x0 REVERT JUMPDEST ADD MLOAD SWAP1 POP DUP10 DUP1 PUSH2 0x567 JUMP JUMPDEST SWAP3 POP PUSH1 0x5 DUP11 ADD PUSH1 0x0 MSTORE PUSH1 0x20 PUSH1 0x0 KECCAK256 SWAP1 PUSH1 0x0 SWAP4 JUMPDEST PUSH1 0x1F NOT DUP5 AND DUP6 LT PUSH2 0x7BF JUMPI PUSH1 0x1 SWAP5 POP DUP4 PUSH1 0x1F NOT DUP2 AND LT PUSH2 0x7A6 JUMPI JUMPDEST POP POP POP DUP2 SHL ADD PUSH1 0x5 DUP9 ADD SSTORE PUSH2 0x57F JUMP JUMPDEST ADD MLOAD PUSH1 0x0 NOT PUSH1 0xF8 DUP5 PUSH1 0x3 SHL AND SHR NOT AND SWAP1 SSTORE DUP10 DUP1 DUP1 PUSH2 0x796 JUMP JUMPDEST DUP2 DUP2 ADD MLOAD DUP4 SSTORE PUSH1 0x20 SWAP5 DUP6 ADD SWAP5 PUSH1 0x1 SWAP1 SWAP4 ADD SWAP3 SWAP1 SWAP2 ADD SWAP1 PUSH2 0x77B JUMP JUMPDEST SWAP1 SWAP2 POP PUSH1 0x5 DUP11 ADD PUSH1 0x0 MSTORE PUSH1 0x20 PUSH1 0x0 KECCAK256 PUSH1 0x1F DUP5 ADD PUSH1 0x5 SHR DUP2 ADD PUSH1 0x20 DUP6 LT PUSH2 0x826 JUMPI JUMPDEST SWAP1 DUP5 SWAP4 SWAP3 SWAP2 JUMPDEST PUSH1 0x1F DUP4 ADD PUSH1 0x5 SHR DUP3 ADD DUP2 LT PUSH2 0x817 JUMPI POP POP PUSH2 0x550 JUMP JUMPDEST PUSH1 0x0 DUP2 SSTORE DUP6 SWAP5 POP PUSH1 0x1 ADD PUSH2 0x801 JUMP JUMPDEST POP DUP1 PUSH2 0x7FB JUMP JUMPDEST ADD MLOAD SWAP1 POP DUP10 DUP1 PUSH2 0x50A JUMP JUMPDEST SWAP3 POP PUSH1 0x4 DUP11 ADD PUSH1 0x0 MSTORE PUSH1 0x20 PUSH1 0x0 KECCAK256 SWAP1 PUSH1 0x0 SWAP4 JUMPDEST PUSH1 0x1F NOT DUP5 AND DUP6 LT PUSH2 0x88F JUMPI PUSH1 0x1 SWAP5 POP DUP4 PUSH1 0x1F NOT DUP2 AND LT PUSH2 0x876 JUMPI JUMPDEST POP POP POP DUP2 SHL ADD PUSH1 0x4 DUP9 ADD SSTORE PUSH2 0x522 JUMP JUMPDEST ADD MLOAD PUSH1 0x0 NOT PUSH1 0xF8 DUP5 PUSH1 0x3 SHL AND SHR NOT AND SWAP1 SSTORE DUP10 DUP1 DUP1 PUSH2 0x866 JUMP JUMPDEST DUP2 DUP2 ADD MLOAD DUP4 SSTORE PUSH1 0x20 SWAP5 DUP6 ADD SWAP5 PUSH1 0x1 SWAP1 SWAP4 ADD SWAP3 SWAP1 SWAP2 ADD SWAP1 PUSH2 0x84B JUMP JUMPDEST SWAP1 SWAP2 POP PUSH1 0x4 DUP11 ADD PUSH1 0x0 MSTORE PUSH1 0x20 PUSH1 0x0 KECCAK256 PUSH1 0x1F DUP5 ADD PUSH1 0x5 SHR DUP2 ADD PUSH1 0x20 DUP6 LT PUSH2 0x8F6 JUMPI JUMPDEST SWAP1 DUP5 SWAP4 SWAP3 SWAP2 JUMPDEST PUSH1 0x1F DUP4 ADD PUSH1 0x5 SHR DUP3 ADD DUP2 LT PUSH2 0x8E7 JUMPI POP POP PUSH2 0x4F3 JUMP JUMPDEST PUSH1 0x0 DUP2 SSTORE DUP6 SWAP5 POP PUSH1 0x1 ADD PUSH2 0x8D1 JUMP JUMPDEST POP DUP1 PUSH2 0x8CB JUMP JUMPDEST ADD MLOAD SWAP1 POP DUP10 DUP1 PUSH2 0x4AD JUMP JUMPDEST SWAP3 POP PUSH1 0x3 DUP11 ADD PUSH1 0x0 MSTORE PUSH1 0x20 PUSH1 0x0 KECCAK256 SWAP1 PUSH1 0x0 SWAP4 JUMPDEST PUSH1 0x1F NOT DUP5 AND DUP6 LT PUSH2 0x95F JUMPI PUSH1 0x1 SWAP5 POP DUP4 PUSH1 0x1F NOT DUP2 AND LT PUSH2 0x946 JUMPI JUMPDEST POP POP POP DUP2 SHL ADD PUSH1 0x3 DUP9 ADD SSTORE PUSH2 0x4C5 JUMP JUMPDEST ADD MLOAD PUSH1 0x0 NOT PUSH1 0xF8 DUP5 PUSH1 0x3 SHL AND SHR NOT AND SWAP1 SSTORE DUP10 DUP1 DUP1 PUSH2 0x936 JUMP JUMPDEST DUP2 DUP2 ADD MLOAD DUP4 SSTORE PUSH1 0x20 SWAP5 DUP6 ADD SWAP5 PUSH1 0x1 SWAP1 SWAP4 ADD SWAP3 SWAP1 SWAP2 ADD SWAP1 PUSH2 0x91B JUMP JUMPDEST SWAP1 SWAP2 POP PUSH1 0x3 DUP11 ADD PUSH1 0x0 MSTORE PUSH1 0x20 PUSH1 0x0 KECCAK256 PUSH1 0x1F DUP5 ADD PUSH1 0x5 SHR DUP2 ADD PUSH1 0x20 DUP6 LT PUSH2 0x9C6 JUMPI JUMPDEST SWAP1 DUP5 SWAP4 SWAP3 SWAP2 JUMPDEST PUSH1 0x1F DUP4 ADD PUSH1 0x5 SHR DUP3 ADD DUP2 LT PUSH2 0x9B7 JUMPI POP POP PUSH2 0x496 JUMP JUMPDEST PUSH1 0x0 DUP2 SSTORE DUP6 SWAP5 POP PUSH1 0x1 ADD PUSH2 0x9A1 JUMP JUMPDEST POP DUP1 PUSH2 0x99B JUMP JUMPDEST ADD MLOAD SWAP1 POP DUP10 DUP1 PUSH2 0x446 JUMP JUMPDEST SWAP3 POP PUSH1 0x1 DUP11 ADD PUSH1 0x0 MSTORE PUSH1 0x20 PUSH1 0x0 KECCAK256 SWAP1 PUSH1 0x0 SWAP4 JUMPDEST PUSH1 0x1F NOT DUP5 AND DUP6 LT PUSH2 0xA2F JUMPI PUSH1 0x1 SWAP5 POP DUP4 PUSH1 0x1F NOT DUP2 AND LT PUSH2 0xA16 JUMPI JUMPDEST POP POP POP DUP2 SHL ADD PUSH1 0x1 DUP9 ADD SSTORE PUSH2 0x45E JUMP JUMPDEST ADD MLOAD PUSH1 0x0 NOT PUSH1 0xF8 DUP5 PUSH1 0x3 SHL AND SHR NOT AND SWAP1 SSTORE DUP10 DUP1 DUP1 PUSH2 0xA06 JUMP JUMPDEST DUP2 DUP2 ADD MLOAD DUP4 SSTORE PUSH1 0x20 SWAP5 DUP6 ADD SWAP5 PUSH1 0x1 SWAP1 SWAP4 ADD SWAP3 SWAP1 SWAP2 ADD SWAP1 PUSH2 0x9EB JUMP JUMPDEST SWAP1 SWAP2 POP PUSH1 0x1 DUP11 ADD PUSH1 0x0 MSTORE PUSH1 0x20 PUSH1 0x0 KECCAK256 PUSH1 0x1F DUP5 ADD PUSH1 0x5 SHR DUP2 ADD PUSH1 0x20 DUP6 LT PUSH2 0xA96 JUMPI JUMPDEST SWAP1 DUP5 SWAP4 SWAP3 SWAP2 JUMPDEST PUSH1 0x1F DUP4 ADD PUSH1 0x5 SHR DUP3 ADD DUP2 LT PUSH2 0xA87 JUMPI POP POP PUSH2 0x42F JUMP JUMPDEST PUSH1 0x0 DUP2 SSTORE DUP6 SWAP5 POP PUSH1 0x1 ADD PUSH2 0xA71 JUMP JUMPDEST POP DUP1 PUSH2 0xA6B JUMP JUMPDEST ADD MLOAD SWAP1 POP DUP10 DUP1 PUSH2 0x3EC JUMP JUMPDEST SWAP3 POP DUP10 PUSH1 0x0 MSTORE PUSH1 0x20 PUSH1 0x0 KECCAK256 SWAP1 PUSH1 0x0 SWAP4 JUMPDEST PUSH1 0x1F NOT DUP5 AND DUP6 LT PUSH2 0xAF9 JUMPI PUSH1 0x1 SWAP5 POP DUP4 PUSH1 0x1F NOT DUP2 AND LT PUSH2 0xAE0 JUMPI JUMPDEST POP POP POP DUP2 SHL ADD DUP8 SSTORE PUSH2 0x401 JUMP JUMPDEST ADD MLOAD PUSH1 0x0 NOT PUSH1 0xF8 DUP5 PUSH1 0x3 SHL AND SHR NOT AND SWAP1 SSTORE DUP10 DUP1 DUP1 PUSH2 0xAD3 JUMP JUMPDEST DUP2 DUP2 ADD MLOAD DUP4 SSTORE PUSH1 0x20 SWAP5 DUP6 ADD SWAP5 PUSH1 0x1 SWAP1 SWAP4 ADD SWAP3 SWAP1 SWAP2 ADD SWAP1 PUSH2 0xAB8 JUMP JUMPDEST SWAP1 SWAP2 POP DUP10 PUSH1 0x0 MSTORE PUSH1 0x20 PUSH1 0x0 KECCAK256 PUSH1 0x1F DUP5 ADD PUSH1 0x5 SHR DUP2 ADD PUSH1 0x20 DUP6 LT PUSH2 0xB5D JUMPI JUMPDEST SWAP1 DUP5 SWAP4 SWAP3 SWAP2 JUMPDEST PUSH1 0x1F DUP4 ADD PUSH1 0x5 SHR DUP3 ADD DUP2 LT PUSH2 0xB4E JUMPI POP POP PUSH2 0x3D5 JUMP JUMPDEST PUSH1 0x0 DUP2 SSTORE DUP6 SWAP5 POP PUSH1 0x1 ADD PUSH2 0xB38 JUMP JUMPDEST POP DUP1 PUSH2 0xB32 JUMP JUMPDEST PUSH4 0x4E487B71 PUSH1 0xE0 SHL PUSH1 0x0 MSTORE PUSH1 0x11 PUSH1 0x4 MSTORE PUSH1 0x24 PUSH1 0x0 REVERT JUMPDEST CALLVALUE PUSH2 0x229 JUMPI PUSH1 0x20 DUP1 PUSH1 0x3 NOT CALLDATASIZE ADD SLT PUSH2 0x229 JUMPI PUSH1 0x4 CALLDATALOAD SWAP1 PUSH2 0xB9D PUSH1 0x1 SLOAD DUP4 LT PUSH2 0x1053 JUMP JUMPDEST DUP2 PUSH1 0x0 MSTORE PUSH1 0x0 DUP2 MSTORE PUSH1 0xFF PUSH1 0x7 PUSH1 0x40 PUSH1 0x0 KECCAK256 ADD SLOAD AND ISZERO PUSH2 0xC51 JUMPI DUP2 PUSH1 0x0 MSTORE PUSH1 0x0 DUP2 MSTORE PUSH1 0xFF PUSH1 0x7 PUSH1 0x40 PUSH1 0x0 KECCAK256 ADD SLOAD PUSH1 0x8 SHR AND PUSH2 0xC14 JUMPI PUSH1 0x0 SWAP1 DUP3 DUP3 MSTORE MSTORE PUSH1 0x7 PUSH1 0x40 PUSH1 0x0 KECCAK256 ADD PUSH2 0x100 PUSH2 0xFF00 NOT DUP3 SLOAD AND OR SWAP1 SSTORE PUSH32 0xBBC7BDBBB0E5FC8247F420AEA3EE1CCB3DE5AF816CD9A8612EA279970455F552 PUSH1 0x0 DUP1 LOG2 STOP JUMPDEST PUSH1 0x64 SWAP1 PUSH1 0x40 MLOAD SWAP1 PUSH3 0x461BCD PUSH1 0xE5 SHL DUP3 MSTORE PUSH1 0x4 DUP3 ADD MSTORE PUSH1 0x16 PUSH1 0x24 DUP3 ADD MSTORE PUSH22 0x14185E5B595B9D08185B1C9958591E481A5CDCDD5959 PUSH1 0x52 SHL PUSH1 0x44 DUP3 ADD MSTORE REVERT JUMPDEST PUSH1 0x64 SWAP1 PUSH1 0x40 MLOAD SWAP1 PUSH3 0x461BCD PUSH1 0xE5 SHL DUP3 MSTORE PUSH1 0x4 DUP3 ADD MSTORE PUSH1 0x15 PUSH1 0x24 DUP3 ADD MSTORE PUSH21 0x11195B1A5D995C9E481B9BDD081D995C9A599A5959 PUSH1 0x5A SHL PUSH1 0x44 DUP3 ADD MSTORE REVERT JUMPDEST CALLVALUE PUSH2 0x229 JUMPI PUSH1 0x20 CALLDATASIZE PUSH1 0x3 NOT ADD SLT PUSH2 0x229 JUMPI PUSH1 0x4 CALLDATALOAD PUSH1 0x0 MSTORE PUSH1 0x0 PUSH1 0x20 MSTORE PUSH1 0x40 PUSH1 0x0 KECCAK256 PUSH2 0xD2C PUSH2 0xCBA DUP3 PUSH2 0xED9 JUMP JUMPDEST PUSH1 0xFF PUSH2 0xD77 PUSH2 0xCCB PUSH1 0x1 DUP7 ADD PUSH2 0xED9 JUMP JUMPDEST SWAP5 PUSH2 0xD69 PUSH1 0x2 DUP3 ADD SLOAD PUSH2 0xD5B PUSH2 0xCE3 PUSH1 0x3 DUP6 ADD PUSH2 0xED9 JUMP JUMPDEST SWAP2 PUSH2 0xD4D PUSH2 0xCF3 PUSH1 0x4 DUP8 ADD PUSH2 0xED9 JUMP JUMPDEST SWAP2 PUSH2 0xD00 PUSH1 0x5 DUP9 ADD PUSH2 0xED9 JUMP JUMPDEST SWAP5 PUSH2 0xD3A PUSH1 0x7 PUSH2 0xD12 PUSH1 0x6 DUP12 ADD PUSH2 0xED9 JUMP JUMPDEST SWAP10 ADD SLOAD SWAP12 PUSH1 0x40 MLOAD SWAP15 DUP16 SWAP15 DUP16 SWAP3 PUSH2 0x120 DUP1 DUP6 MSTORE DUP5 ADD SWAP1 PUSH2 0xF7F JUMP JUMPDEST SWAP2 PUSH1 0x20 DUP2 DUP5 SUB SWAP2 ADD MSTORE PUSH2 0xF7F JUMP JUMPDEST SWAP2 PUSH1 0x40 DUP14 ADD MSTORE DUP12 DUP3 SUB PUSH1 0x60 DUP14 ADD MSTORE PUSH2 0xF7F JUMP JUMPDEST SWAP1 DUP10 DUP3 SUB PUSH1 0x80 DUP12 ADD MSTORE PUSH2 0xF7F JUMP JUMPDEST SWAP1 DUP8 DUP3 SUB PUSH1 0xA0 DUP10 ADD MSTORE PUSH2 0xF7F JUMP JUMPDEST SWAP1 DUP6 DUP3 SUB PUSH1 0xC0 DUP8 ADD MSTORE PUSH2 0xF7F JUMP JUMPDEST SWAP2 DUP2 DUP2 AND ISZERO ISZERO PUSH1 0xE0 DUP6 ADD MSTORE PUSH1 0x8 SHR AND ISZERO ISZERO PUSH2 0x100 DUP4 ADD MSTORE SUB SWAP1 RETURN JUMPDEST CALLVALUE PUSH2 0x229 JUMPI PUSH1 0x20 CALLDATASIZE PUSH1 0x3 NOT ADD SLT PUSH2 0x229 JUMPI PUSH1 0x4 CALLDATALOAD PUSH2 0xDB3 PUSH1 0x1 SLOAD DUP3 LT PUSH2 0x1053 JUMP JUMPDEST DUP1 PUSH1 0x0 MSTORE PUSH1 0x0 PUSH1 0x20 MSTORE PUSH1 0xFF PUSH1 0x7 PUSH1 0x40 PUSH1 0x0 KECCAK256 ADD SLOAD AND PUSH2 0xE0F JUMPI DUP1 PUSH1 0x0 MSTORE PUSH1 0x0 PUSH1 0x20 MSTORE PUSH1 0x7 PUSH1 0x40 PUSH1 0x0 KECCAK256 ADD PUSH1 0x1 PUSH1 0xFF NOT DUP3 SLOAD AND OR SWAP1 SSTORE PUSH32 0x71AA2DB59DED58F085B69C1FDA199F5E07AF21B2F224EC68EFB290C0E668BB2A PUSH1 0x0 DUP1 LOG2 STOP JUMPDEST PUSH1 0x40 MLOAD PUSH3 0x461BCD PUSH1 0xE5 SHL DUP2 MSTORE PUSH1 0x20 PUSH1 0x4 DUP3 ADD MSTORE PUSH1 0x10 PUSH1 0x24 DUP3 ADD MSTORE PUSH16 0x105B1C9958591E481D995C9A599A5959 PUSH1 0x82 SHL PUSH1 0x44 DUP3 ADD MSTORE PUSH1 0x64 SWAP1 REVERT JUMPDEST CALLVALUE PUSH2 0x229 JUMPI PUSH1 0x0 CALLDATASIZE PUSH1 0x3 NOT ADD SLT PUSH2 0x229 JUMPI PUSH1 0x20 SWAP1 PUSH1 0x1 SLOAD DUP2 MSTORE RETURN JUMPDEST SWAP1 PUSH1 0x1 DUP3 DUP2 SHR SWAP3 AND DUP1 ISZERO PUSH2 0xE92 JUMPI JUMPDEST PUSH1 0x20 DUP4 LT EQ PUSH2 0xE7C JUMPI JUMP JUMPDEST PUSH4 0x4E487B71 PUSH1 0xE0 SHL PUSH1 0x0 MSTORE PUSH1 0x22 PUSH1 0x4 MSTORE PUSH1 0x24 PUSH1 0x0 REVERT JUMPDEST SWAP2 PUSH1 0x7F AND SWAP2 PUSH2 0xE71 JUMP JUMPDEST PUSH2 0x120 DUP2 ADD SWAP1 DUP2 LT PUSH1 0x1 PUSH1 0x1 PUSH1 0x40 SHL SUB DUP3 GT OR PUSH2 0x747 JUMPI PUSH1 0x40 MSTORE JUMP JUMPDEST SWAP1 PUSH1 0x1F DUP1 NOT SWAP2 ADD AND DUP2 ADD SWAP1 DUP2 LT PUSH1 0x1 PUSH1 0x1 PUSH1 0x40 SHL SUB DUP3 GT OR PUSH2 0x747 JUMPI PUSH1 0x40 MSTORE JUMP JUMPDEST SWAP1 PUSH1 0x40 MLOAD SWAP2 DUP3 PUSH1 0x0 DUP3 SLOAD SWAP3 PUSH2 0xEED DUP5 PUSH2 0xE62 JUMP JUMPDEST SWAP1 DUP2 DUP5 MSTORE PUSH1 0x1 SWAP5 DUP6 DUP2 AND SWAP1 DUP2 PUSH1 0x0 EQ PUSH2 0xF5C JUMPI POP PUSH1 0x1 EQ PUSH2 0xF19 JUMPI JUMPDEST POP POP PUSH2 0xF17 SWAP3 POP SUB DUP4 PUSH2 0xEB8 JUMP JUMPDEST JUMP JUMPDEST SWAP1 SWAP4 SWAP2 POP PUSH1 0x0 MSTORE PUSH1 0x20 SWAP1 DUP2 PUSH1 0x0 KECCAK256 SWAP4 PUSH1 0x0 SWAP2 JUMPDEST DUP2 DUP4 LT PUSH2 0xF44 JUMPI POP POP PUSH2 0xF17 SWAP4 POP DUP3 ADD ADD CODESIZE DUP1 PUSH2 0xF09 JUMP JUMPDEST DUP6 SLOAD DUP9 DUP5 ADD DUP6 ADD MSTORE SWAP5 DUP6 ADD SWAP5 DUP8 SWAP5 POP SWAP2 DUP4 ADD SWAP2 PUSH2 0xF2C JUMP JUMPDEST SWAP2 POP POP PUSH2 0xF17 SWAP5 POP PUSH1 0x20 SWAP3 POP PUSH1 0xFF NOT AND DUP3 DUP5 ADD MSTORE ISZERO ISZERO PUSH1 0x5 SHL DUP3 ADD ADD CODESIZE DUP1 PUSH2 0xF09 JUMP JUMPDEST SWAP2 SWAP1 DUP3 MLOAD SWAP3 DUP4 DUP3 MSTORE PUSH1 0x0 JUMPDEST DUP5 DUP2 LT PUSH2 0xFAB JUMPI POP POP DUP3 PUSH1 0x0 PUSH1 0x20 DUP1 SWAP5 SWAP6 DUP5 ADD ADD MSTORE PUSH1 0x1F DUP1 NOT SWAP2 ADD AND ADD ADD SWAP1 JUMP JUMPDEST PUSH1 0x20 DUP2 DUP4 ADD DUP2 ADD MLOAD DUP5 DUP4 ADD DUP3 ADD MSTORE ADD PUSH2 0xF8A JUMP JUMPDEST SWAP2 DUP2 PUSH1 0x1F DUP5 ADD SLT ISZERO PUSH2 0x229 JUMPI DUP3 CALLDATALOAD SWAP2 PUSH1 0x1 PUSH1 0x1 PUSH1 0x40 SHL SUB DUP4 GT PUSH2 0x229 JUMPI PUSH1 0x20 DUP4 DUP2 DUP7 ADD SWAP6 ADD ADD GT PUSH2 0x229 JUMPI JUMP JUMPDEST SWAP3 SWAP2 SWAP3 PUSH1 0x1 PUSH1 0x1 PUSH1 0x40 SHL SUB DUP3 GT PUSH2 0x747 JUMPI PUSH1 0x40 MLOAD SWAP2 PUSH2 0x1015 PUSH1 0x1F DUP3 ADD PUSH1 0x1F NOT AND PUSH1 0x20 ADD DUP5 PUSH2 0xEB8 JUMP JUMPDEST DUP3 SWAP5 DUP2 DUP5 MSTORE DUP2 DUP4 ADD GT PUSH2 0x229 JUMPI DUP3 DUP2 PUSH1 0x20 SWAP4 DUP5 PUSH1 0x0 SWAP7 ADD CALLDATACOPY ADD ADD MSTORE JUMP JUMPDEST SWAP1 DUP1 PUSH1 0x20 SWAP4 SWAP3 DUP2 DUP5 MSTORE DUP5 DUP5 ADD CALLDATACOPY PUSH1 0x0 DUP3 DUP3 ADD DUP5 ADD MSTORE PUSH1 0x1F ADD PUSH1 0x1F NOT AND ADD ADD SWAP1 JUMP JUMPDEST ISZERO PUSH2 0x105A JUMPI JUMP JUMPDEST PUSH1 0x40 MLOAD PUSH3 0x461BCD PUSH1 0xE5 SHL DUP2 MSTORE PUSH1 0x20 PUSH1 0x4 DUP3 ADD MSTORE PUSH1 0x13 PUSH1 0x24 DUP3 ADD MSTORE PUSH19 0x125B9D985B1A59081D1C9858DADA5B99C81251 PUSH1 0x6A SHL PUSH1 0x44 DUP3 ADD MSTORE PUSH1 0x64 SWAP1 REVERT INVALID LOG2 PUSH5 0x6970667358 0x22 SLT KECCAK256 BYTE SHR 0xDC SUB PUSH20 0x484452D74FC507987D95749EC396A953A19C4F04 DUP10 0xC3 0xE1 0xD6 0x27 0xB8 CALLDATACOPY PUSH5 0x736F6C6343 STOP ADDMOD EQ STOP CALLER "},"methodIdentifiers":{"createDelivery(string,string,uint256,string,string,string,string)":"b5d730d9","deliveries(uint256)":"a9e4a324","getDelivery(uint256)":"de8211a9","markPaid(uint256)":"ad207e1e","markVerified(uint256)":"5b8929c4","nextTrackingId()":"2535ec74"}}}}}