{"contracts/DeliveryVerifier.sol":{"DeliveryVerifier":{"abi":[{"inputs":[{"internalType":"address","name":"_deliveryStorageAddress","type":"address"}],"stateMutability":"nonpayable","type":"constructor"},{"inputs":[],"name":"deliveryStorage","outputs":[{"internalType":"contract DeliveryStorage","name":"","type":"address"}],"stateMutability":"view","type":"function"},{"inputs":[{"internalType":"uint256","name":"_trackingId","type":"uint256"}],"name":"verifyDelivery","outputs":[],"stateMutability":"nonpayable","type":"function"}],"evm":{"bytecode":{"linkReferences":{},"object":"60803461007457601f61043d38819003918201601f19168301916001600160401b038311848410176100795780849260209460405283398101031261007457516001600160a01b0381169081900361007457600080546001600160a01b0319169190911790556040516103ad90816100908239f35b600080fd5b634e487b7160e01b600052604160045260246000fdfe6080604081815260048036101561001557600080fd5b600092833560e01c91826323675c4714610064575050633b70ab2c1461003a57600080fd5b34610060578160031936011261006057905490516001600160a01b039091168152602090f35b5080fd5b838591346102b85760203660031901126102b857825463de8211a960e01b855281358286018190526001600160a01b03909116948481602481895afa80156102ae578590610165575b60e091500151610122578484953b1561011e5760248592855196879384926316e24a7160e21b8452878401525af18015610114576100e9578380f35b67ffffffffffffffff83116101015750528180808380f35b634e487b7160e01b845260419052602483fd5b82513d86823e3d90fd5b8480fd5b506020606492519162461bcd60e51b8352820152601960248201527f44656c697665727920616c7265616479207665726966696564000000000000006044820152fd5b503d8086833e61017581836102bc565b81016020828203126102aa57815167ffffffffffffffff9283821161028f57019061012092838383031261028f57865193840184811082821117610297578752825181811161029357826101ca9185016102f4565b8452602083015181811161029357826101e49185016102f4565b60208501528683015187850152606083015181811161029357826102099185016102f4565b6060850152608083015181811161029357826102269185016102f4565b608085015260a083015181811161029357826102439185016102f4565b60a085015260c083015190811161028f5782916102649160e09594016102f4565b60c083015261027483820161036a565b8383015261028661010080920161036a565b908201526100ad565b8780fd5b8880fd5b634e487b7160e01b895260418752602489fd5b8580fd5b84513d87823e3d90fd5b8280fd5b90601f8019910116810190811067ffffffffffffffff8211176102de57604052565b634e487b7160e01b600052604160045260246000fd5b919080601f840112156103655782519067ffffffffffffffff82116102de576040519160209161032d601f8301601f19168401856102bc565b8184528282870101116103655760005b81811061035257508260009394955001015290565b858101830151848201840152820161033d565b600080fd5b519081151582036103655756fea264697066735822122038f8f3df150a5a99be32d56b960fe6584d63a6078671d31f83e4df233298266664736f6c63430008140033","opcodes":"PUSH1 0x80 CALLVALUE PUSH2 0x74 JUMPI PUSH1 0x1F PUSH2 0x43D CODESIZE DUP2 SWAP1 SUB SWAP2 DUP3 ADD PUSH1 0x1F NOT AND DUP4 ADD SWAP2 PUSH1 0x1 PUSH1 0x1 PUSH1 0x40 SHL SUB DUP4 GT DUP5 DUP5 LT OR PUSH2 0x79 JUMPI DUP1 DUP5 SWAP3 PUSH1 0x20 SWAP5 PUSH1 0x40 MSTORE DUP4 CODECOPY DUP2 ADD SUB SLT PUSH2 0x74 JUMPI MLOAD PUSH1 0x1 PUSH1 0x1 PUSH1 0xA0 SHL SUB DUP2 AND SWAP1 DUP2 SWAP1 SUB PUSH2 0x74 JUMPI PUSH1 0x0 DUP1 SLOAD PUSH1 0x1 PUSH1 0x1 PUSH1 0xA0 SHL SUB NOT AND SWAP2 SWAP1 SWAP2 OR SWAP1 SSTORE PUSH1 0x40 MLOAD PUSH2 0x3AD SWAP1 DUP2 PUSH2 0x90 DUP3 CODECOPY RETURN JUMPDEST PUSH1 0x0 DUP1 REVERT JUMPDEST PUSH4 0x4E487B71 PUSH1 0xE0 SHL PUSH1 0x0 MSTORE PUSH1 0x41 PUSH1 0x4 MSTORE PUSH1 0x24 PUSH1 0x0 REVERT INVALID PUSH1 0x80 PUSH1 0x40 DUP2 DUP2 MSTORE PUSH1 0x4 DUP1 CALLDATASIZE LT ISZERO PUSH2 0x15 JUMPI PUSH1 0x0 DUP1 REVERT JUMPDEST PUSH1 0x0 SWAP3 DUP4 CALLDATALOAD PUSH1 0xE0 SHR SWAP2 DUP3 PUSH4 0x23675C47 EQ PUSH2 0x64 JUMPI POP POP PUSH4 0x3B70AB2C EQ PUSH2 0x3A JUMPI PUSH1 0x0 DUP1 REVERT JUMPDEST CALLVALUE PUSH2 0x60 JUMPI DUP2 PUSH1 0x3 NOT CALLDATASIZE ADD SLT PUSH2 0x60 JUMPI SWAP1 SLOAD SWAP1 MLOAD PUSH1 0x1 PUSH1 0x1 PUSH1 0xA0 SHL SUB SWAP1 SWAP2 AND DUP2 MSTORE PUSH1 0x20 SWAP1 RETURN JUMPDEST POP DUP1 REVERT JUMPDEST DUP4 DUP6 SWAP2 CALLVALUE PUSH2 0x2B8 JUMPI PUSH1 0x20 CALLDATASIZE PUSH1 0x3 NOT ADD SLT PUSH2 0x2B8 JUMPI DUP3 SLOAD PUSH4 0xDE8211A9 PUSH1 0xE0 SHL DUP6 MSTORE DUP2 CALLDATALOAD DUP3 DUP7 ADD DUP2 SWAP1 MSTORE PUSH1 0x1 PUSH1 0x1 PUSH1 0xA0 SHL SUB SWAP1 SWAP2 AND SWAP5 DUP5 DUP2 PUSH1 0x24 DUP2 DUP10 GAS STATICCALL DUP1 ISZERO PUSH2 0x2AE JUMPI DUP6 SWAP1 PUSH2 0x165 JUMPI JUMPDEST PUSH1 0xE0 SWAP2 POP ADD MLOAD PUSH2 0x122 JUMPI DUP5 DUP5 SWAP6 EXTCODESIZE ISZERO PUSH2 0x11E JUMPI PUSH1 0x24 DUP6 SWAP3 DUP6 MLOAD SWAP7 DUP8 SWAP4 DUP5 SWAP3 PUSH4 0x16E24A71 PUSH1 0xE2 SHL DUP5 MSTORE DUP8 DUP5 ADD MSTORE GAS CALL DUP1 ISZERO PUSH2 0x114 JUMPI PUSH2 0xE9 JUMPI DUP4 DUP1 RETURN JUMPDEST PUSH8 0xFFFFFFFFFFFFFFFF DUP4 GT PUSH2 0x101 JUMPI POP MSTORE DUP2 DUP1 DUP1 DUP4 DUP1 RETURN JUMPDEST PUSH4 0x4E487B71 PUSH1 0xE0 SHL DUP5 MSTORE PUSH1 0x41 SWAP1 MSTORE PUSH1 0x24 DUP4 REVERT JUMPDEST DUP3 MLOAD RETURNDATASIZE DUP7 DUP3 RETURNDATACOPY RETURNDATASIZE SWAP1 REVERT JUMPDEST DUP5 DUP1 REVERT JUMPDEST POP PUSH1 0x20 PUSH1 0x64 SWAP3 MLOAD SWAP2 PUSH3 0x461BCD PUSH1 0xE5 SHL DUP4 MSTORE DUP3 ADD MSTORE PUSH1 0x19 PUSH1 0x24 DUP3 ADD MSTORE PUSH32 0x44656C697665727920616C726561647920766572696669656400000000000000 PUSH1 0x44 DUP3 ADD MSTORE REVERT JUMPDEST POP RETURNDATASIZE DUP1 DUP7 DUP4 RETURNDATACOPY PUSH2 0x175 DUP2 DUP4 PUSH2 0x2BC JUMP JUMPDEST DUP2 ADD PUSH1 0x20 DUP3 DUP3 SUB SLT PUSH2 0x2AA JUMPI DUP2 MLOAD PUSH8 0xFFFFFFFFFFFFFFFF SWAP3 DUP4 DUP3 GT PUSH2 0x28F JUMPI ADD SWAP1 PUSH2 0x120 SWAP3 DUP4 DUP4 DUP4 SUB SLT PUSH2 0x28F JUMPI DUP7 MLOAD SWAP4 DUP5 ADD DUP5 DUP2 LT DUP3 DUP3 GT OR PUSH2 0x297 JUMPI DUP8 MSTORE DUP3 MLOAD DUP2 DUP2 GT PUSH2 0x293 JUMPI DUP3 PUSH2 0x1CA SWAP2 DUP6 ADD PUSH2 0x2F4 JUMP JUMPDEST DUP5 MSTORE PUSH1 0x20 DUP4 ADD MLOAD DUP2 DUP2 GT PUSH2 0x293 JUMPI DUP3 PUSH2 0x1E4 SWAP2 DUP6 ADD PUSH2 0x2F4 JUMP JUMPDEST PUSH1 0x20 DUP6 ADD MSTORE DUP7 DUP4 ADD MLOAD DUP8 DUP6 ADD MSTORE PUSH1 0x60 DUP4 ADD MLOAD DUP2 DUP2 GT PUSH2 0x293 JUMPI DUP3 PUSH2 0x209 SWAP2 DUP6 ADD PUSH2 0x2F4 JUMP JUMPDEST PUSH1 0x60 DUP6 ADD MSTORE PUSH1 0x80 DUP4 ADD MLOAD DUP2 DUP2 GT PUSH2 0x293 JUMPI DUP3 PUSH2 0x226 SWAP2 DUP6 ADD PUSH2 0x2F4 JUMP JUMPDEST PUSH1 0x80 DUP6 ADD MSTORE PUSH1 0xA0 DUP4 ADD MLOAD DUP2 DUP2 GT PUSH2 0x293 JUMPI DUP3 PUSH2 0x243 SWAP2 DUP6 ADD PUSH2 0x2F4 JUMP JUMPDEST PUSH1 0xA0 DUP6 ADD MSTORE PUSH1 0xC0 DUP4 ADD MLOAD SWAP1 DUP2 GT PUSH2 0x28F JUMPI DUP3 SWAP2 PUSH2 0x264 SWAP2 PUSH1 0xE0 SWAP6 SWAP5 ADD PUSH2 0x2F4 JUMP JUMPDEST PUSH1 0xC0 DUP4 ADD MSTORE PUSH2 0x274 DUP4 DUP3 ADD PUSH2 0x36A JUMP JUMPDEST DUP4 DUP4 ADD MSTORE PUSH2 0x286 PUSH2 0x100 DUP1 SWAP3 ADD PUSH2 0x36A JUMP JUMPDEST SWAP1 DUP3 ADD MSTORE PUSH2 0xAD JUMP JUMPDEST DUP8 DUP1 REVERT JUMPDEST DUP9 DUP1 REVERT JUMPDEST PUSH4 0x4E487B71 PUSH1 0xE0 SHL DUP10 MSTORE PUSH1 0x41 DUP8 MSTORE PUSH1 0x24 DUP10 REVERT JUMPDEST DUP6 DUP1 REVERT JUMPDEST DUP5 MLOAD RETURNDATASIZE DUP8 DUP3 RETURNDATACOPY RETURNDATASIZE SWAP1 REVERT JUMPDEST DUP3 DUP1 REVERT JUMPDEST SWAP1 PUSH1 0x1F DUP1 NOT SWAP2 ADD AND DUP2 ADD SWAP1 DUP2 LT PUSH8 0xFFFFFFFFFFFFFFFF DUP3 GT OR PUSH2 0x2DE JUMPI PUSH1 0x40 MSTORE JUMP JUMPDEST PUSH4 0x4E487B71 PUSH1 0xE0 SHL PUSH1 0x0 MSTORE PUSH1 0x41 PUSH1 0x4 MSTORE PUSH1 0x24 PUSH1 0x0 REVERT JUMPDEST SWAP2 SWAP1 DUP1 PUSH1 0x1F DUP5 ADD SLT ISZERO PUSH2 0x365 JUMPI DUP3 MLOAD SWAP1 PUSH8 0xFFFFFFFFFFFFFFFF DUP3 GT PUSH2 0x2DE JUMPI PUSH1 0x40 MLOAD SWAP2 PUSH1 0x20 SWAP2 PUSH2 0x32D PUSH1 0x1F DUP4 ADD PUSH1 0x1F NOT AND DUP5 ADD DUP6 PUSH2 0x2BC JUMP JUMPDEST DUP2 DUP5 MSTORE DUP3 DUP3 DUP8 ADD ADD GT PUSH2 0x365 JUMPI PUSH1 0x0 JUMPDEST DUP2 DUP2 LT PUSH2 0x352 JUMPI POP DUP3 PUSH1 0x0 SWAP4 SWAP5 SWAP6 POP ADD ADD MSTORE SWAP1 JUMP JUMPDEST DUP6 DUP2 ADD DUP4 ADD MLOAD DUP5 DUP3 ADD DUP5 ADD MSTORE DUP3 ADD PUSH2 0x33D JUMP JUMPDEST PUSH1 0x0 DUP1 REVERT JUMPDEST MLOAD SWAP1 DUP2 ISZERO ISZERO DUP3 SUB PUSH2 0x365 JUMPI JUMP INVALID LOG2 PUSH5 0x6970667358 0x22 SLT KECCAK256 CODESIZE 0xF8 RETURN 0xDF ISZERO EXP GAS SWAP10 0xBE ORIGIN 0xD5 PUSH12 0x960FE6584D63A6078671D31F DUP4 0xE4 0xDF 0x23 ORIGIN SWAP9 0x26 PUSH7 0x64736F6C634300 ADDMOD EQ STOP CALLER "},"methodIdentifiers":{"deliveryStorage()":"3b70ab2c","verifyDelivery(uint256)":"23675c47"}}}}}