{"contracts/PaymentIssuer.sol":{"PaymentIssuer":{"abi":[{"inputs":[{"internalType":"address","name":"_deliveryStorageAddress","type":"address"}],"stateMutability":"nonpayable","type":"constructor"},{"inputs":[],"name":"deliveryStorage","outputs":[{"internalType":"contract DeliveryStorage","name":"","type":"address"}],"stateMutability":"view","type":"function"},{"inputs":[{"internalType":"uint256","name":"_trackingId","type":"uint256"}],"name":"issuePayment","outputs":[],"stateMutability":"nonpayable","type":"function"}],"evm":{"bytecode":{"linkReferences":{},"object":"60803461007457601f61047b38819003918201601f19168301916001600160401b038311848410176100795780849260209460405283398101031261007457516001600160a01b0381169081900361007457600080546001600160a01b0319169190911790556040516103eb90816100908239f35b600080fd5b634e487b7160e01b600052604160045260246000fdfe60806040908082526004918236101561001757600080fd5b600091823560e01c9081633b70ab2c146102d6575063cc5f9f991461003b57600080fd5b346102d257602092836003193601126102ce578254825163de8211a960e01b815282358382018190526024939290916001600160a01b039091169086818681855afa9081156102c457879161017f575b5060e08101511561014557610100015161010a57859650803b1561010657838692865197889384926356903f0f60e11b8452878401525af180156100fc576100d1578480f35b67ffffffffffffffff84116100eb57505052388080808480f35b634e487b7160e01b85526041905283fd5b83513d87823e3d90fd5b8580fd5b845162461bcd60e51b81528084018890526016818601527514185e5b595b9d08185b1c9958591e481a5cdcdd595960521b6044820152606490fd5b855162461bcd60e51b81528085018990526015818701527411195b1a5d995c9e481b9bdd081d995c9a599a5959605a1b6044820152606490fd5b90503d8088833e61019081836102fa565b810188828203126102c057815167ffffffffffffffff928382116102a65701906101209283838303126102a6578851938401848110828211176102ae57895282518181116102aa57826101e4918501610332565b84528a8301518181116102aa57826101fd918501610332565b8b850152888301518985015260608301518181116102aa5782610221918501610332565b606085015260808301518181116102aa578261023e918501610332565b608085015260a08301518181116102aa578261025b918501610332565b60a085015260c08301519081116102a65790610278918301610332565b60c083015261028960e082016103a8565b60e083015261029c6101008092016103a8565b908201523861008b565b8980fd5b8a80fd5b634e487b7160e01b8b5260418852888bfd5b8780fd5b86513d89823e3d90fd5b8280fd5b5080fd5b8390346102d257816003193601126102d25790546001600160a01b03168152602090f35b90601f8019910116810190811067ffffffffffffffff82111761031c57604052565b634e487b7160e01b600052604160045260246000fd5b919080601f840112156103a35782519067ffffffffffffffff821161031c576040519160209161036b601f8301601f19168401856102fa565b8184528282870101116103a35760005b81811061039057508260009394955001015290565b858101830151848201840152820161037b565b600080fd5b519081151582036103a35756fea26469706673582212205b55f03be0d27c300275aecde12c000cae3d70ab20f89d2de6bc8ce9cba2917264736f6c63430008140033","opcodes":"PUSH1 0x80 CALLVALUE PUSH2 0x74 JUMPI PUSH1 0x1F PUSH2 0x47B CODESIZE DUP2 SWAP1 SUB SWAP2 DUP3 ADD PUSH1 0x1F NOT AND DUP4 ADD SWAP2 PUSH1 0x1 PUSH1 0x1 PUSH1 0x40 SHL SUB DUP4 GT DUP5 DUP5 LT OR PUSH2 0x79 JUMPI DUP1 DUP5 SWAP3 PUSH1 0x20 SWAP5 PUSH1 0x40 MSTORE DUP4 CODECOPY DUP2 ADD SUB SLT PUSH2 0x74 JUMPI MLOAD PUSH1 0x1 PUSH1 0x1 PUSH1 0xA0 SHL SUB DUP2 AND SWAP1 DUP2 SWAP1 SUB PUSH2 0x74 JUMPI PUSH1 0x0 DUP1 SLOAD PUSH1 0x1 PUSH1 0x1 PUSH1 0xA0 SHL SUB NOT AND SWAP2 SWAP1 SWAP2 OR SWAP1 SSTORE PUSH1 0x40 MLOAD PUSH2 0x3EB SWAP1 DUP2 PUSH2 0x90 DUP3 CODECOPY RETURN JUMPDEST PUSH1 0x0 DUP1 REVERT JUMPDEST PUSH4 0x4E487B71 PUSH1 0xE0 SHL PUSH1 0x0 MSTORE PUSH1 0x41 PUSH1 0x4 MSTORE PUSH1 0x24 PUSH1 0x0 REVERT INVALID PUSH1 0x80 PUSH1 0x40 SWAP1 DUP1 DUP3 MSTORE PUSH1 0x4 SWAP2 DUP3 CALLDATASIZE LT ISZERO PUSH2 0x17 JUMPI PUSH1 0x0 DUP1 REVERT JUMPDEST PUSH1 0x0 SWAP2 DUP3 CALLDATALOAD PUSH1 0xE0 SHR SWAP1 DUP2 PUSH4 0x3B70AB2C EQ PUSH2 0x2D6 JUMPI POP PUSH4 0xCC5F9F99 EQ PUSH2 0x3B JUMPI PUSH1 0x0 DUP1 REVERT JUMPDEST CALLVALUE PUSH2 0x2D2 JUMPI PUSH1 0x20 SWAP3 DUP4 PUSH1 0x3 NOT CALLDATASIZE ADD SLT PUSH2 0x2CE JUMPI DUP3 SLOAD DUP3 MLOAD PUSH4 0xDE8211A9 PUSH1 0xE0 SHL DUP2 MSTORE DUP3 CALLDATALOAD DUP4 DUP3 ADD DUP2 SWAP1 MSTORE PUSH1 0x24 SWAP4 SWAP3 SWAP1 SWAP2 PUSH1 0x1 PUSH1 0x1 PUSH1 0xA0 SHL SUB SWAP1 SWAP2 AND SWAP1 DUP7 DUP2 DUP7 DUP2 DUP6 GAS STATICCALL SWAP1 DUP2 ISZERO PUSH2 0x2C4 JUMPI DUP8 SWAP2 PUSH2 0x17F JUMPI JUMPDEST POP PUSH1 0xE0 DUP2 ADD MLOAD ISZERO PUSH2 0x145 JUMPI PUSH2 0x100 ADD MLOAD PUSH2 0x10A JUMPI DUP6 SWAP7 POP DUP1 EXTCODESIZE ISZERO PUSH2 0x106 JUMPI DUP4 DUP7 SWAP3 DUP7 MLOAD SWAP8 DUP9 SWAP4 DUP5 SWAP3 PUSH4 0x56903F0F PUSH1 0xE1 SHL DUP5 MSTORE DUP8 DUP5 ADD MSTORE GAS CALL DUP1 ISZERO PUSH2 0xFC JUMPI PUSH2 0xD1 JUMPI DUP5 DUP1 RETURN JUMPDEST PUSH8 0xFFFFFFFFFFFFFFFF DUP5 GT PUSH2 0xEB JUMPI POP POP MSTORE CODESIZE DUP1 DUP1 DUP1 DUP5 DUP1 RETURN JUMPDEST PUSH4 0x4E487B71 PUSH1 0xE0 SHL DUP6 MSTORE PUSH1 0x41 SWAP1 MSTORE DUP4 REVERT JUMPDEST DUP4 MLOAD RETURNDATASIZE DUP8 DUP3 RETURNDATACOPY RETURNDATASIZE SWAP1 REVERT JUMPDEST DUP6 DUP1 REVERT JUMPDEST DUP5 MLOAD PUSH3 0x461BCD PUSH1 0xE5 SHL DUP2 MSTORE DUP1 DUP5 ADD DUP9 SWAP1 MSTORE PUSH1 0x16 DUP2 DUP7 ADD MSTORE PUSH22 0x14185E5B595B9D08185B1C9958591E481A5CDCDD5959 PUSH1 0x52 SHL PUSH1 0x44 DUP3 ADD MSTORE PUSH1 0x64 SWAP1 REVERT JUMPDEST DUP6 MLOAD PUSH3 0x461BCD PUSH1 0xE5 SHL DUP2 MSTORE DUP1 DUP6 ADD DUP10 SWAP1 MSTORE PUSH1 0x15 DUP2 DUP8 ADD MSTORE PUSH21 0x11195B1A5D995C9E481B9BDD081D995C9A599A5959 PUSH1 0x5A SHL PUSH1 0x44 DUP3 ADD MSTORE PUSH1 0x64 SWAP1 REVERT JUMPDEST SWAP1 POP RETURNDATASIZE DUP1 DUP9 DUP4 RETURNDATACOPY PUSH2 0x190 DUP2 DUP4 PUSH2 0x2FA JUMP JUMPDEST DUP2 ADD DUP9 DUP3 DUP3 SUB SLT PUSH2 0x2C0 JUMPI DUP2 MLOAD PUSH8 0xFFFFFFFFFFFFFFFF SWAP3 DUP4 DUP3 GT PUSH2 0x2A6 JUMPI ADD SWAP1 PUSH2 0x120 SWAP3 DUP4 DUP4 DUP4 SUB SLT PUSH2 0x2A6 JUMPI DUP9 MLOAD SWAP4 DUP5 ADD DUP5 DUP2 LT DUP3 DUP3 GT OR PUSH2 0x2AE JUMPI DUP10 MSTORE DUP3 MLOAD DUP2 DUP2 GT PUSH2 0x2AA JUMPI DUP3 PUSH2 0x1E4 SWAP2 DUP6 ADD PUSH2 0x332 JUMP JUMPDEST DUP5 MSTORE DUP11 DUP4 ADD MLOAD DUP2 DUP2 GT PUSH2 0x2AA JUMPI DUP3 PUSH2 0x1FD SWAP2 DUP6 ADD PUSH2 0x332 JUMP JUMPDEST DUP12 DUP6 ADD MSTORE DUP9 DUP4 ADD MLOAD DUP10 DUP6 ADD MSTORE PUSH1 0x60 DUP4 ADD MLOAD DUP2 DUP2 GT PUSH2 0x2AA JUMPI DUP3 PUSH2 0x221 SWAP2 DUP6 ADD PUSH2 0x332 JUMP JUMPDEST PUSH1 0x60 DUP6 ADD MSTORE PUSH1 0x80 DUP4 ADD MLOAD DUP2 DUP2 GT PUSH2 0x2AA JUMPI DUP3 PUSH2 0x23E SWAP2 DUP6 ADD PUSH2 0x332 JUMP JUMPDEST PUSH1 0x80 DUP6 ADD MSTORE PUSH1 0xA0 DUP4 ADD MLOAD DUP2 DUP2 GT PUSH2 0x2AA JUMPI DUP3 PUSH2 0x25B SWAP2 DUP6 ADD PUSH2 0x332 JUMP JUMPDEST PUSH1 0xA0 DUP6 ADD MSTORE PUSH1 0xC0 DUP4 ADD MLOAD SWAP1 DUP2 GT PUSH2 0x2A6 JUMPI SWAP1 PUSH2 0x278 SWAP2 DUP4 ADD PUSH2 0x332 JUMP JUMPDEST PUSH1 0xC0 DUP4 ADD MSTORE PUSH2 0x289 PUSH1 0xE0 DUP3 ADD PUSH2 0x3A8 JUMP JUMPDEST PUSH1 0xE0 DUP4 ADD MSTORE PUSH2 0x29C PUSH2 0x100 DUP1 SWAP3 ADD PUSH2 0x3A8 JUMP JUMPDEST SWAP1 DUP3 ADD MSTORE CODESIZE PUSH2 0x8B JUMP JUMPDEST DUP10 DUP1 REVERT JUMPDEST DUP11 DUP1 REVERT JUMPDEST PUSH4 0x4E487B71 PUSH1 0xE0 SHL DUP12 MSTORE PUSH1 0x41 DUP9 MSTORE DUP9 DUP12 REVERT JUMPDEST DUP8 DUP1 REVERT JUMPDEST DUP7 MLOAD RETURNDATASIZE DUP10 DUP3 RETURNDATACOPY RETURNDATASIZE SWAP1 REVERT JUMPDEST DUP3 DUP1 REVERT JUMPDEST POP DUP1 REVERT JUMPDEST DUP4 SWAP1 CALLVALUE PUSH2 0x2D2 JUMPI DUP2 PUSH1 0x3 NOT CALLDATASIZE ADD SLT PUSH2 0x2D2 JUMPI SWAP1 SLOAD PUSH1 0x1 PUSH1 0x1 PUSH1 0xA0 SHL SUB AND DUP2 MSTORE PUSH1 0x20 SWAP1 RETURN JUMPDEST SWAP1 PUSH1 0x1F DUP1 NOT SWAP2 ADD AND DUP2 ADD SWAP1 DUP2 LT PUSH8 0xFFFFFFFFFFFFFFFF DUP3 GT OR PUSH2 0x31C JUMPI PUSH1 0x40 MSTORE JUMP JUMPDEST PUSH4 0x4E487B71 PUSH1 0xE0 SHL PUSH1 0x0 MSTORE PUSH1 0x41 PUSH1 0x4 MSTORE PUSH1 0x24 PUSH1 0x0 REVERT JUMPDEST SWAP2 SWAP1 DUP1 PUSH1 0x1F DUP5 ADD SLT ISZERO PUSH2 0x3A3 JUMPI DUP3 MLOAD SWAP1 PUSH8 0xFFFFFFFFFFFFFFFF DUP3 GT PUSH2 0x31C JUMPI PUSH1 0x40 MLOAD SWAP2 PUSH1 0x20 SWAP2 PUSH2 0x36B PUSH1 0x1F DUP4 ADD PUSH1 0x1F NOT AND DUP5 ADD DUP6 PUSH2 0x2FA JUMP JUMPDEST DUP2 DUP5 MSTORE DUP3 DUP3 DUP8 ADD ADD GT PUSH2 0x3A3 JUMPI PUSH1 0x0 JUMPDEST DUP2 DUP2 LT PUSH2 0x390 JUMPI POP DUP3 PUSH1 0x0 SWAP4 SWAP5 SWAP6 POP ADD ADD MSTORE SWAP1 JUMP JUMPDEST DUP6 DUP2 ADD DUP4 ADD MLOAD DUP5 DUP3 ADD DUP5 ADD MSTORE DUP3 ADD PUSH2 0x37B JUMP JUMPDEST PUSH1 0x0 DUP1 REVERT JUMPDEST MLOAD SWAP1 DUP2 ISZERO ISZERO DUP3 SUB PUSH2 0x3A3 JUMPI JUMP INVALID LOG2 PUSH5 0x6970667358 0x22 SLT KECCAK256 JUMPDEST SSTORE CREATE EXTCODESIZE 0xE0 0xD2 PUSH29 0x300275AECDE12C000CAE3D70AB20F89D2DE6BC8CE9CBA2917264736F6C PUSH4 0x43000814 STOP CALLER "},"methodIdentifiers":{"deliveryStorage()":"3b70ab2c","issuePayment(uint256)":"cc5f9f99"}}}}}