{
  "_format": "hh-sol-artifact-1",
  "contractName": "PaymentIssuer",
  "sourceName": "contracts/PaymentIssuer.sol",
  "abi": [
    {
      "inputs": [
        {
          "internalType": "address",
          "name": "_deliveryStorageAddress",
          "type": "address"
        }
      ],
      "stateMutability": "nonpayable",
      "type": "constructor"
    },
    {
      "inputs": [],
      "name": "deliveryStorage",
      "outputs": [
        {
          "internalType": "contract DeliveryStorage",
          "name": "",
          "type": "address"
        }
      ],
      "stateMutability": "view",
      "type": "function"
    },
    {
      "inputs": [
        {
          "internalType": "uint256",
          "name": "_trackingId",
          "type": "uint256"
        }
      ],
      "name": "issuePayment",
      "outputs": [],
      "stateMutability": "nonpayable",
      "type": "function"
    }
  ],
  "bytecode": "0x60803461007457601f61047b38819003918201601f19168301916001600160401b038311848410176100795780849260209460405283398101031261007457516001600160a01b0381169081900361007457600080546001600160a01b0319169190911790556040516103eb90816100908239f35b600080fd5b634e487b7160e01b600052604160045260246000fdfe60806040908082526004918236101561001757600080fd5b600091823560e01c9081633b70ab2c146102d6575063cc5f9f991461003b57600080fd5b346102d257602092836003193601126102ce578254825163de8211a960e01b815282358382018190526024939290916001600160a01b039091169086818681855afa9081156102c457879161017f575b5060e08101511561014557610100015161010a57859650803b1561010657838692865197889384926356903f0f60e11b8452878401525af180156100fc576100d1578480f35b67ffffffffffffffff84116100eb57505052388080808480f35b634e487b7160e01b85526041905283fd5b83513d87823e3d90fd5b8580fd5b845162461bcd60e51b81528084018890526016818601527514185e5b595b9d08185b1c9958591e481a5cdcdd595960521b6044820152606490fd5b855162461bcd60e51b81528085018990526015818701527411195b1a5d995c9e481b9bdd081d995c9a599a5959605a1b6044820152606490fd5b90503d8088833e61019081836102fa565b810188828203126102c057815167ffffffffffffffff928382116102a65701906101209283838303126102a6578851938401848110828211176102ae57895282518181116102aa57826101e4918501610332565b84528a8301518181116102aa57826101fd918501610332565b8b850152888301518985015260608301518181116102aa5782610221918501610332565b606085015260808301518181116102aa578261023e918501610332565b608085015260a08301518181116102aa578261025b918501610332565b60a085015260c08301519081116102a65790610278918301610332565b60c083015261028960e082016103a8565b60e083015261029c6101008092016103a8565b908201523861008b565b8980fd5b8a80fd5b634e487b7160e01b8b5260418852888bfd5b8780fd5b86513d89823e3d90fd5b8280fd5b5080fd5b8390346102d257816003193601126102d25790546001600160a01b03168152602090f35b90601f8019910116810190811067ffffffffffffffff82111761031c57604052565b634e487b7160e01b600052604160045260246000fd5b919080601f840112156103a35782519067ffffffffffffffff821161031c576040519160209161036b601f8301601f19168401856102fa565b8184528282870101116103a35760005b81811061039057508260009394955001015290565b858101830151848201840152820161037b565b600080fd5b519081151582036103a35756fea26469706673582212205b55f03be0d27c300275aecde12c000cae3d70ab20f89d2de6bc8ce9cba2917264736f6c63430008140033",
  "linkReferences": {},
  "deployedLinkReferences": {}
}