{
  "_format": "hh-sol-artifact-1",
  "contractName": "DeliveryStorage",
  "sourceName": "contracts/DeliveryStorage.sol",
  "abi": [
    {
      "anonymous": false,
      "inputs": [
        {
          "indexed": true,
          "internalType": "uint256",
          "name": "trackingId",
          "type": "uint256"
        },
        {
          "indexed": false,
          "internalType": "string",
          "name": "nametag",
          "type": "string"
        },
        {
          "indexed": false,
          "internalType": "string",
          "name": "pickupStation",
          "type": "string"
        }
      ],
      "name": "DeliveryCreated",
      "type": "event"
    },
    {
      "anonymous": false,
      "inputs": [
        {
          "indexed": true,
          "internalType": "uint256",
          "name": "trackingId",
          "type": "uint256"
        }
      ],
      "name": "DeliveryVerified",
      "type": "event"
    },
    {
      "anonymous": false,
      "inputs": [
        {
          "indexed": true,
          "internalType": "uint256",
          "name": "trackingId",
          "type": "uint256"
        }
      ],
      "name": "PaymentIssued",
      "type": "event"
    },
    {
      "inputs": [
        {
          "internalType": "string",
          "name": "_nametag",
          "type": "string"
        },
        {
          "internalType": "string",
          "name": "_pickupStation",
          "type": "string"
        },
        {
          "internalType": "uint256",
          "name": "_amount",
          "type": "uint256"
        },
        {
          "internalType": "string",
          "name": "_recipientName",
          "type": "string"
        },
        {
          "internalType": "string",
          "name": "_senderName",
          "type": "string"
        },
        {
          "internalType": "string",
          "name": "_recipientPhone",
          "type": "string"
        },
        {
          "internalType": "string",
          "name": "_senderPhone",
          "type": "string"
        }
      ],
      "name": "createDelivery",
      "outputs": [],
      "stateMutability": "nonpayable",
      "type": "function"
    },
    {
      "inputs": [
        {
          "internalType": "uint256",
          "name": "",
          "type": "uint256"
        }
      ],
      "name": "deliveries",
      "outputs": [
        {
          "internalType": "string",
          "name": "nametag",
          "type": "string"
        },
        {
          "internalType": "string",
          "name": "pickupStation",
          "type": "string"
        },
        {
          "internalType": "uint256",
          "name": "amount",
          "type": "uint256"
        },
        {
          "internalType": "string",
          "name": "recipientName",
          "type": "string"
        },
        {
          "internalType": "string",
          "name": "senderName",
          "type": "string"
        },
        {
          "internalType": "string",
          "name": "recipientPhone",
          "type": "string"
        },
        {
          "internalType": "string",
          "name": "senderPhone",
          "type": "string"
        },
        {
          "internalType": "bool",
          "name": "isVerified",
          "type": "bool"
        },
        {
          "internalType": "bool",
          "name": "isPaid",
          "type": "bool"
        }
      ],
      "stateMutability": "view",
      "type": "function"
    },
    {
      "inputs": [
        {
          "internalType": "uint256",
          "name": "_trackingId",
          "type": "uint256"
        }
      ],
      "name": "getDelivery",
      "outputs": [
        {
          "components": [
            {
              "internalType": "string",
              "name": "nametag",
              "type": "string"
            },
            {
              "internalType": "string",
              "name": "pickupStation",
              "type": "string"
            },
            {
              "internalType": "uint256",
              "name": "amount",
              "type": "uint256"
            },
            {
              "internalType": "string",
              "name": "recipientName",
              "type": "string"
            },
            {
              "internalType": "string",
              "name": "senderName",
              "type": "string"
            },
            {
              "internalType": "string",
              "name": "recipientPhone",
              "type": "string"
            },
            {
              "internalType": "string",
              "name": "senderPhone",
              "type": "string"
            },
            {
              "internalType": "bool",
              "name": "isVerified",
              "type": "bool"
            },
            {
              "internalType": "bool",
              "name": "isPaid",
              "type": "bool"
            }
          ],
          "internalType": "struct DeliveryStorage.Delivery",
          "name": "",
          "type": "tuple"
        }
      ],
      "stateMutability": "view",
      "type": "function"
    },
    {
      "inputs": [
        {
          "internalType": "uint256",
          "name": "_trackingId",
          "type": "uint256"
        }
      ],
      "name": "markPaid",
      "outputs": [],
      "stateMutability": "nonpayable",
      "type": "function"
    },
    {
      "inputs": [
        {
          "internalType": "uint256",
          "name": "_trackingId",
          "type": "uint256"
        }
      ],
      "name": "markVerified",
      "outputs": [],
      "stateMutability": "nonpayable",
      "type": "function"
    },
    {
      "inputs": [],
      "name": "nextTrackingId",
      "outputs": [
        {
          "internalType": "uint256",
          "name": "",
          "type": "uint256"
        }
      ],
      "stateMutability": "view",
      "type": "function"
    }
  ],
  "bytecode": "0x60808060405234610016576110cb908161001c8239f35b600080fdfe608080604052600436101561001357600080fd5b60003560e01c9081632535ec7414610e47575080635b8929c414610d92578063a9e4a32414610c8d578063ad207e1e14610b7a578063b5d730d91461022e5763de8211a91461006157600080fd5b3461022957602080600319360112610229576040516004359161008382610e9c565b6060928383528382840152604083016000905283808401528360808401528360a08401528360c084015260e08301600090526101008093016000905260015481106100cd90611053565b60005260008152604060002090604051926100e784610e9c565b6100f083610ed9565b84526100fe60018401610ed9565b848301908152600284015460408601908152919061011e60038601610ed9565b8688019081529461013160048201610ed9565b6080880190815261014460058301610ed9565b60a089019081529061015860068401610ed9565b9260c08a01938452600701549560e08a019860ff881615158a52868b019760081c60ff16151588526040519b8c9b8a8d52518c6101209b8c9101526101408d016101a191610f7f565b9651601f198d8903810160408f0152976101ba91610f7f565b9251908c01525190858b82030160808c01526101d591610f7f565b905190848a82030160a08b01526101eb91610f7f565b905190838982030160c08a015261020191610f7f565b9051918782030160e088015261021691610f7f565b9351151590850152511515908301520390f35b600080fd5b346102295760e0366003190112610229576004356001600160401b0381116102295761025e903690600401610fbf565b906024356001600160401b0381116102295761027e903690600401610fbf565b9190926064356001600160401b038111610229576102a0903690600401610fbf565b9490936084356001600160401b038111610229576102c2903690600401610fbf565b9060a4356001600160401b038111610229576102e2903690600401610fbf565b60c4356001600160401b03811161022957610301903690600401610fbf565b9390946001549a6000198c14610b645760018c016001556040519c6103258e610e9c565b8d610331368d8f610fec565b90528d61033f368b8d610fec565b90602001528d6044359060400152369061035892610fec565b60608d0152369061036892610fec565b60808b0152369061037892610fec565b60a0890152369061038892610fec565b60c087015260e086016000905261010086016000905284600052600060205260406000209580518051906001600160401b0382116107475781906103cc8a54610e62565b601f8111610b14575b50602090601f8311600114610aa857600092610a9d575b50508160011b916000199060031b1c19161787555b60208101518051906001600160401b03821161074757819061042660018b0154610e62565b601f8111610a4a575b50602090601f83116001146109d8576000926109cd575b50508160011b916000199060031b1c19161760018801555b6040810151600288015560608101518051906001600160401b03821161074757819061048d60038b0154610e62565b601f811161097a575b50602090601f8311600114610908576000926108fd575b50508160011b916000199060031b1c19161760038801555b60808101518051906001600160401b0382116107475781906104ea60048b0154610e62565b601f81116108aa575b50602090601f83116001146108385760009261082d575b50508160011b916000199060031b1c19161760048801555b60a08101518051906001600160401b03821161074757819061054760058b0154610e62565b601f81116107da575b50602090601f83116001146107685760009261075d575b50508160011b916000199060031b1c19161760058801555b60c08101519687516001600160401b038111610747576105a26006830154610e62565b601f8111610700575b506020601f8211600114610666579181600792610656979695947fcea9ac5e0f0dc54e3b85c0978a717c9928150737d8fef119b4e080c2af121f689b9c60009261065b575b50508160011b916000199060031b1c19161760068201555b019060e081015115159060ff61ff006101008554930151151560081b1692169061ffff191617179055610648604051958695604087526040870191611032565b918483036020860152611032565b0390a2005b015190508c806105f0565b6006830160005260206000209960005b601f19841681106106e85750827fcea9ac5e0f0dc54e3b85c0978a717c9928150737d8fef119b4e080c2af121f689a9b6106569897969593600193600796601f198116106106cf575b505050811b016006820155610608565b015160001960f88460031b161c191690558c80806106bf565b828201518c556001909b019a60209283019201610676565b600683016000526020600020601f830160051c810160208410610740575b601f830160051c820181106107345750506105ab565b6000815560010161071e565b508061071e565b634e487b7160e01b600052604160045260246000fd5b015190508980610567565b925060058a016000526020600020906000935b601f19841685106107bf576001945083601f198116106107a6575b505050811b01600588015561057f565b015160001960f88460031b161c19169055898080610796565b8181015183556020948501946001909301929091019061077b565b90915060058a016000526020600020601f840160051c810160208510610826575b90849392915b601f830160051c82018110610817575050610550565b60008155859450600101610801565b50806107fb565b01519050898061050a565b925060048a016000526020600020906000935b601f198416851061088f576001945083601f19811610610876575b505050811b016004880155610522565b015160001960f88460031b161c19169055898080610866565b8181015183556020948501946001909301929091019061084b565b90915060048a016000526020600020601f840160051c8101602085106108f6575b90849392915b601f830160051c820181106108e75750506104f3565b600081558594506001016108d1565b50806108cb565b0151905089806104ad565b925060038a016000526020600020906000935b601f198416851061095f576001945083601f19811610610946575b505050811b0160038801556104c5565b015160001960f88460031b161c19169055898080610936565b8181015183556020948501946001909301929091019061091b565b90915060038a016000526020600020601f840160051c8101602085106109c6575b90849392915b601f830160051c820181106109b7575050610496565b600081558594506001016109a1565b508061099b565b015190508980610446565b925060018a016000526020600020906000935b601f1984168510610a2f576001945083601f19811610610a16575b505050811b01600188015561045e565b015160001960f88460031b161c19169055898080610a06565b818101518355602094850194600190930192909101906109eb565b90915060018a016000526020600020601f840160051c810160208510610a96575b90849392915b601f830160051c82018110610a8757505061042f565b60008155859450600101610a71565b5080610a6b565b0151905089806103ec565b9250896000526020600020906000935b601f1984168510610af9576001945083601f19811610610ae0575b505050811b018755610401565b015160001960f88460031b161c19169055898080610ad3565b81810151835560209485019460019093019290910190610ab8565b909150896000526020600020601f840160051c810160208510610b5d575b90849392915b601f830160051c82018110610b4e5750506103d5565b60008155859450600101610b38565b5080610b32565b634e487b7160e01b600052601160045260246000fd5b34610229576020806003193601126102295760043590610b9d6001548310611053565b816000526000815260ff6007604060002001541615610c5157816000526000815260ff60076040600020015460081c16610c145760009082825252600760406000200161010061ff00198254161790557fbbc7bdbbb0e5fc8247f420aea3ee1ccb3de5af816cd9a8612ea279970455f552600080a2005b6064906040519062461bcd60e51b82526004820152601660248201527514185e5b595b9d08185b1c9958591e481a5cdcdd595960521b6044820152fd5b6064906040519062461bcd60e51b82526004820152601560248201527411195b1a5d995c9e481b9bdd081d995c9a599a5959605a1b6044820152fd5b346102295760203660031901126102295760043560005260006020526040600020610d2c610cba82610ed9565b60ff610d77610ccb60018601610ed9565b94610d696002820154610d5b610ce360038501610ed9565b91610d4d610cf360048701610ed9565b91610d0060058801610ed9565b94610d3a6007610d1260068b01610ed9565b9901549b6040519e8f9e8f92610120808552840190610f7f565b916020818403910152610f7f565b9160408d01528b820360608d0152610f7f565b9089820360808b0152610f7f565b9087820360a0890152610f7f565b9085820360c0870152610f7f565b91818116151560e085015260081c1615156101008301520390f35b3461022957602036600319011261022957600435610db36001548210611053565b80600052600060205260ff60076040600020015416610e0f578060005260006020526007604060002001600160ff198254161790557f71aa2db59ded58f085b69c1fda199f5e07af21b2f224ec68efb290c0e668bb2a600080a2005b60405162461bcd60e51b815260206004820152601060248201526f105b1c9958591e481d995c9a599a595960821b6044820152606490fd5b34610229576000366003190112610229576020906001548152f35b90600182811c92168015610e92575b6020831014610e7c57565b634e487b7160e01b600052602260045260246000fd5b91607f1691610e71565b61012081019081106001600160401b0382111761074757604052565b90601f801991011681019081106001600160401b0382111761074757604052565b9060405191826000825492610eed84610e62565b908184526001948581169081600014610f5c5750600114610f19575b5050610f1792500383610eb8565b565b9093915060005260209081600020936000915b818310610f44575050610f1793508201013880610f09565b85548884018501529485019487945091830191610f2c565b915050610f1794506020925060ff191682840152151560051b8201013880610f09565b919082519283825260005b848110610fab575050826000602080949584010152601f8019910116010190565b602081830181015184830182015201610f8a565b9181601f84011215610229578235916001600160401b038311610229576020838186019501011161022957565b9291926001600160401b0382116107475760405191611015601f8201601f191660200184610eb8565b829481845281830111610229578281602093846000960137010152565b908060209392818452848401376000828201840152601f01601f1916010190565b1561105a57565b60405162461bcd60e51b8152602060048201526013602482015272125b9d985b1a59081d1c9858dada5b99c81251606a1b6044820152606490fdfea26469706673582212201a1cdc0373484452d74fc507987d95749ec396a953a19c4f0489c3e1d627b83764736f6c63430008140033",
  "linkReferences": {},
  "deployedLinkReferences": {}
}