{
  "_format": "hh-sol-artifact-1",
  "contractName": "DeliveryVerifier",
  "sourceName": "contracts/DeliveryVerifier.sol",
  "abi": [
    {
      "inputs": [
        {
          "internalType": "address",
          "name": "_deliveryStorageAddress",
          "type": "address"
        }
      ],
      "stateMutability": "nonpayable",
      "type": "constructor"
    },
    {
      "inputs": [],
      "name": "deliveryStorage",
      "outputs": [
        {
          "internalType": "contract DeliveryStorage",
          "name": "",
          "type": "address"
        }
      ],
      "stateMutability": "view",
      "type": "function"
    },
    {
      "inputs": [
        {
          "internalType": "uint256",
          "name": "_trackingId",
          "type": "uint256"
        }
      ],
      "name": "verifyDelivery",
      "outputs": [],
      "stateMutability": "nonpayable",
      "type": "function"
    }
  ],
  "bytecode": "0x60803461007457601f61043d38819003918201601f19168301916001600160401b038311848410176100795780849260209460405283398101031261007457516001600160a01b0381169081900361007457600080546001600160a01b0319169190911790556040516103ad90816100908239f35b600080fd5b634e487b7160e01b600052604160045260246000fdfe6080604081815260048036101561001557600080fd5b600092833560e01c91826323675c4714610064575050633b70ab2c1461003a57600080fd5b34610060578160031936011261006057905490516001600160a01b039091168152602090f35b5080fd5b838591346102b85760203660031901126102b857825463de8211a960e01b855281358286018190526001600160a01b03909116948481602481895afa80156102ae578590610165575b60e091500151610122578484953b1561011e5760248592855196879384926316e24a7160e21b8452878401525af18015610114576100e9578380f35b67ffffffffffffffff83116101015750528180808380f35b634e487b7160e01b845260419052602483fd5b82513d86823e3d90fd5b8480fd5b506020606492519162461bcd60e51b8352820152601960248201527f44656c697665727920616c7265616479207665726966696564000000000000006044820152fd5b503d8086833e61017581836102bc565b81016020828203126102aa57815167ffffffffffffffff9283821161028f57019061012092838383031261028f57865193840184811082821117610297578752825181811161029357826101ca9185016102f4565b8452602083015181811161029357826101e49185016102f4565b60208501528683015187850152606083015181811161029357826102099185016102f4565b6060850152608083015181811161029357826102269185016102f4565b608085015260a083015181811161029357826102439185016102f4565b60a085015260c083015190811161028f5782916102649160e09594016102f4565b60c083015261027483820161036a565b8383015261028661010080920161036a565b908201526100ad565b8780fd5b8880fd5b634e487b7160e01b895260418752602489fd5b8580fd5b84513d87823e3d90fd5b8280fd5b90601f8019910116810190811067ffffffffffffffff8211176102de57604052565b634e487b7160e01b600052604160045260246000fd5b919080601f840112156103655782519067ffffffffffffffff82116102de576040519160209161032d601f8301601f19168401856102bc565b8184528282870101116103655760005b81811061035257508260009394955001015290565b858101830151848201840152820161033d565b600080fd5b519081151582036103655756fea264697066735822122038f8f3df150a5a99be32d56b960fe6584d63a6078671d31f83e4df233298266664736f6c63430008140033",
  "linkReferences": {},
  "deployedLinkReferences": {}
}